{
  "contractName": "PrntNFTTradable",
  "abi": [
    {
      "inputs": [
        {
          "internalType": "contract PrntNFTData",
          "name": "_prntNFTData",
          "type": "address"
        }
      ],
      "payable": false,
      "stateMutability": "nonpayable",
      "type": "constructor"
    },
    {
      "anonymous": false,
      "inputs": [
        {
          "indexed": false,
          "internalType": "uint256",
          "name": "ad",
          "type": "uint256"
        },
        {
          "indexed": false,
          "internalType": "bytes32",
          "name": "status",
          "type": "bytes32"
        }
      ],
      "name": "TradeStatusChange",
      "type": "event"
    },
    {
      "constant": true,
      "inputs": [],
      "name": "prntNFT",
      "outputs": [
        {
          "internalType": "contract PrntNFT",
          "name": "",
          "type": "address"
        }
      ],
      "payable": false,
      "stateMutability": "view",
      "type": "function"
    },
    {
      "constant": true,
      "inputs": [],
      "name": "prntNFTData",
      "outputs": [
        {
          "internalType": "contract PrntNFTData",
          "name": "",
          "type": "address"
        }
      ],
      "payable": false,
      "stateMutability": "view",
      "type": "function"
    },
    {
      "constant": true,
      "inputs": [
        {
          "internalType": "uint256",
          "name": "",
          "type": "uint256"
        }
      ],
      "name": "trades",
      "outputs": [
        {
          "internalType": "address",
          "name": "seller",
          "type": "address"
        },
        {
          "internalType": "uint256",
          "name": "prntId",
          "type": "uint256"
        },
        {
          "internalType": "uint256",
          "name": "prntPrice",
          "type": "uint256"
        },
        {
          "internalType": "bytes32",
          "name": "status",
          "type": "bytes32"
        }
      ],
      "payable": false,
      "stateMutability": "view",
      "type": "function"
    },
    {
      "constant": false,
      "inputs": [
        {
          "internalType": "contract PrntNFT",
          "name": "_prntNFT",
          "type": "address"
        },
        {
          "internalType": "uint256",
          "name": "_prntId",
          "type": "uint256"
        },
        {
          "internalType": "uint256",
          "name": "_prntPrice",
          "type": "uint256"
        }
      ],
      "name": "openTradeWhenCreateNewPrntNFT",
      "outputs": [],
      "payable": false,
      "stateMutability": "nonpayable",
      "type": "function"
    },
    {
      "constant": false,
      "inputs": [
        {
          "internalType": "contract PrntNFT",
          "name": "_prntNFT",
          "type": "address"
        },
        {
          "internalType": "uint256",
          "name": "_prntId",
          "type": "uint256"
        }
      ],
      "name": "openTrade",
      "outputs": [],
      "payable": false,
      "stateMutability": "nonpayable",
      "type": "function"
    },
    {
      "constant": false,
      "inputs": [
        {
          "internalType": "contract PrntNFT",
          "name": "_prntNFT",
          "type": "address"
        },
        {
          "internalType": "uint256",
          "name": "_prntId",
          "type": "uint256"
        }
      ],
      "name": "cancelTrade",
      "outputs": [],
      "payable": false,
      "stateMutability": "nonpayable",
      "type": "function"
    },
    {
      "constant": false,
      "inputs": [
        {
          "internalType": "contract PrntNFT",
          "name": "_prntNFT",
          "type": "address"
        },
        {
          "internalType": "uint256",
          "name": "_prntId",
          "type": "uint256"
        },
        {
          "internalType": "address",
          "name": "_buyer",
          "type": "address"
        }
      ],
      "name": "transferOwnershipOfPrntNFT",
      "outputs": [],
      "payable": false,
      "stateMutability": "nonpayable",
      "type": "function"
    },
    {
      "constant": true,
      "inputs": [
        {
          "internalType": "uint256",
          "name": "_prntId",
          "type": "uint256"
        }
      ],
      "name": "getTrade",
      "outputs": [
        {
          "components": [
            {
              "internalType": "address",
              "name": "seller",
              "type": "address"
            },
            {
              "internalType": "uint256",
              "name": "prntId",
              "type": "uint256"
            },
            {
              "internalType": "uint256",
              "name": "prntPrice",
              "type": "uint256"
            },
            {
              "internalType": "bytes32",
              "name": "status",
              "type": "bytes32"
            }
          ],
          "internalType": "struct PrntNFTTradable.Trade",
          "name": "trade_",
          "type": "tuple"
        }
      ],
      "payable": false,
      "stateMutability": "view",
      "type": "function"
    }
  ],
  "bytecode": "0x608060405234801561001057600080fd5b50604051610d09380380610d0983398101604081905261002f9161006a565b600180546001600160a01b0319166001600160a01b039290921691909117905560006003556100c9565b8051610064816100b2565b92915050565b60006020828403121561007c57600080fd5b60006100888484610059565b949350505050565b6000610064826100a6565b600061006482610090565b6001600160a01b031690565b6100bb8161009b565b81146100c657600080fd5b50565b610c31806100d86000396000f3fe608060405234801561001057600080fd5b50600436106100885760003560e01c8063759c4bf31161005b578063759c4bf31461010357806380a279c414610116578063996f6068146101295780639a59ba9b1461013157610088565b80631e6c598e1461008d5780632db25e05146100b95780633b455a93146100d95780635776ffe1146100ee575b600080fd5b6100a061009b366004610872565b610144565b6040516100b09493929190610a5b565b60405180910390f35b6100cc6100c7366004610872565b610177565b6040516100b09190610b1c565b6100e16101d3565b6040516100b09190610a99565b6101016100fc36600461082f565b6101e2565b005b6101016101113660046107a8565b6102f6565b6101016101243660046107a8565b610494565b6100e16105f5565b61010161013f3660046107e2565b610604565b600260208190526000918252604090912080546001820154928201546003909201546001600160a01b0390911692919084565b61017f610729565b610187610729565b5050600090815260026020818152604092839020835160808101855281546001600160a01b03168152600182015492810192909252918201549281019290925260030154606082015290565b6001546001600160a01b031681565b6000546040516323b872dd60e01b81526001600160a01b03909116906323b872dd9061021690339030908790600401610a25565b600060405180830381600087803b15801561023057600080fd5b505af1158015610244573d6000803e3d6000fd5b50506003805460019081018083556040805160808101825233815260208082018a81528284018a81526327b832b760e11b60608501908152600096875260029384905295859020935184546001600160a01b0319166001600160a01b0390911617845590519583019590955593519381019390935590519183019190915590549051600080516020610bcf83398151915293506102e992506000199190910190610b44565b60405180910390a1505050565b600154600054604051634dd5bfa560e11b81526001600160a01b0392831692639bab7f4a9261032a92911690600401610aa7565b602060405180830381600087803b15801561034457600080fd5b505af1158015610358573d6000803e3d6000fd5b505050506040513d601f19601f8201168201806040525061037c9190810190610782565b50600081815260026020526040902080546001600160a01b031633146103bd5760405162461bcd60e51b81526004016103b490610aec565b60405180910390fd5b80600301546327b832b760e11b146103e75760405162461bcd60e51b81526004016103b490610b0c565b600054815460018301546040516323b872dd60e01b81526001600160a01b03938416936323b872dd936104239330939290911691600401610a4d565b600060405180830381600087803b15801561043d57600080fd5b505af1158015610451573d6000803e3d6000fd5b505050600083815260026020526040908190206810d85b98d95b1b195960ba1b60039091015551600080516020610bcf83398151915291506102e9908490610b2a565b600154600054604051634dd5bfa560e11b81526001600160a01b0392831692639bab7f4a926104c892911690600401610acd565b602060405180830381600087803b1580156104e257600080fd5b505af11580156104f6573d6000803e3d6000fd5b505050506040513d601f19601f8201168201806040525061051a9190810190610782565b50600081815260026020526040902080546001600160a01b031633146105525760405162461bcd60e51b81526004016103b490610afc565b60005460018201546040516323b872dd60e01b81526001600160a01b03909216916323b872dd916105899133913091600401610a25565b600060405180830381600087803b1580156105a357600080fd5b505af11580156105b7573d6000803e3d6000fd5b505050600083815260026020526040908190206327b832b760e11b60039091015551600080516020610bcf83398151915291506102e9908490610b44565b6000546001600160a01b031681565b8261060d610729565b61061684610177565b905080606001516327b832b760e11b146106425760405162461bcd60e51b81526004016103b490610b0c565b61064d8585856106fa565b60208101516040516323b872dd60e01b81526001600160a01b038416916323b872dd91610681913091889190600401610a4d565b600060405180830381600087803b15801561069b57600080fd5b505af11580156106af573d6000803e3d6000fd5b505050506810d85b98d95b1b195960ba1b6106c985610177565b60600152604051600080516020610bcf833981519152906106eb908690610b2a565b60405180910390a15050505050565b60009182526002602052604090912080546001600160a01b0319166001600160a01b0390921691909117905550565b60408051608081018252600080825260208201819052918101829052606081019190915290565b803561075b81610b9c565b92915050565b805161075b81610bb3565b803561075b81610bbc565b803561075b81610bc5565b60006020828403121561079457600080fd5b60006107a08484610761565b949350505050565b600080604083850312156107bb57600080fd5b60006107c7858561076c565b92505060206107d885828601610777565b9150509250929050565b6000806000606084860312156107f757600080fd5b6000610803868661076c565b935050602061081486828701610777565b925050604061082586828701610750565b9150509250925092565b60008060006060848603121561084457600080fd5b6000610850868661076c565b935050602061086186828701610777565b925050604061082586828701610777565b60006020828403121561088457600080fd5b60006107a08484610777565b61089981610b91565b82525050565b61089981610b67565b61089981610b77565b61089981610b7a565b60006108c7602683610b5e565b7f54726164652063616e2062652063616e63656c6c6564206f6e6c79206279207381526532b63632b91760d11b602082015260400192915050565b600061090f602183610b5e565b7f54726164652063616e206265206f70656e206f6e6c792062792073656c6c65728152601760f91b602082015260400192915050565b6000610952601283610b5e565b712a3930b2329034b9903737ba1027b832b71760711b815260200192915050565b6810d85b98d95b1b195960ba1b9052565b6000610991600983610b5e565b6810d85b98d95b1b195960ba1b815260200192915050565b6327b832b760e11b9052565b60006109c2600483610b5e565b6327b832b760e11b815260200192915050565b805160808301906109e6848261089f565b5060208201516109f960208501826108a8565b506040820151610a0c60408501826108a8565b506060820151610a1f60608501826108a8565b50505050565b60608101610a338286610890565b610a40602083018561089f565b6107a060408301846108a8565b60608101610a33828661089f565b60808101610a69828761089f565b610a7660208301866108a8565b610a8360408301856108a8565b610a9060608301846108a8565b95945050505050565b6020810161075b82846108b1565b60408101610ab582846108b1565b8181036020830152610ac681610984565b9392505050565b60408101610adb82846108b1565b8181036020830152610ac6816109b5565b6020808252810161075b816108ba565b6020808252810161075b81610902565b6020808252810161075b81610945565b6080810161075b82846109d5565b60408101610b3882846108a8565b61075b60208301610973565b60408101610b5282846108a8565b61075b602083016109a9565b90815260200190565b600061075b82610b85565b151590565b90565b600061075b82610b67565b6001600160a01b031690565b600061075b82610b7a565b610ba581610b67565b8114610bb057600080fd5b50565b610ba581610b72565b610ba581610b7a565b610ba581610b7756fe4d38ed2c5ea671a5ccddc331f0ebebd94a60aaf6e572543497485d4d148f9edfa365627a7a723158206b5f2221b088c9be7cde064e2a13f1771f1c87a89c0605908efc9f607ef83c616c6578706572696d656e74616cf564736f6c63430005100040",
  "source": "pragma solidity >=0.5.0;\npragma experimental ABIEncoderV2;\n\nimport { PrntNFT } from \"./PrntNFT.sol\";\nimport { PrntNFTData } from \"./PrntNFTData.sol\";\n\n\n/**\n * @title - PrntNFTTradable contract\n * @notice - This contract has role that put on sale of prntNFTs\n */\ncontract PrntNFTTradable {\n    event TradeStatusChange(uint256 ad, bytes32 status);\n\n    PrntNFT public prntNFT;\n    PrntNFTData public prntNFTData;\n\n    struct Trade {\n        address seller;\n        uint256 prntId;  /// PrntNFT's token ID\n        uint256 prntPrice;\n        bytes32 status;   /// Open, Executed, Cancelled\n    }\n    mapping(uint256 => Trade) public trades;  /// [Key]: PrntNFT's token ID\n\n    uint256 tradeCounter;\n\n    constructor(PrntNFTData _prntNFTData) public {\n        prntNFTData = _prntNFTData;\n        tradeCounter = 0;\n    }\n\n    /**\n     * @notice - This method is only executed when a seller create a new PrntNFT\n     * @dev Opens a new trade. Puts _prntId in escrow.\n     * @param _prntId The id for the prntId to trade.\n     * @param _prntPrice The amount of currency for which to trade the prntId.\n     */\n    function openTradeWhenCreateNewPrntNFT(PrntNFT _prntNFT, uint256 _prntId, uint256 _prntPrice) public {\n        prntNFT.transferFrom(msg.sender, address(this), _prntId);\n\n        tradeCounter += 1;    /// [Note]: New. Trade count is started from \"1\". This is to align prntId\n        trades[tradeCounter] = Trade({\n            seller: msg.sender,\n            prntId: _prntId,\n            prntPrice: _prntPrice,\n            status: \"Open\"\n        });\n        //tradeCounter += 1;  /// [Note]: Original\n        emit TradeStatusChange(tradeCounter - 1, \"Open\");\n    }\n\n    /**\n     * @dev Opens a trade by the seller.\n     */\n    function openTrade(PrntNFT _prntNFT, uint256 _prntId) public {\n        prntNFTData.updateStatus(prntNFT, \"Open\");\n\n        Trade storage trade = trades[_prntId];\n        require(\n            msg.sender == trade.seller,\n            \"Trade can be open only by seller.\"\n        );\n        prntNFT.transferFrom(msg.sender, address(this), trade.prntId);\n        trades[_prntId].status = \"Open\";\n        emit TradeStatusChange(_prntId, \"Open\");\n    }\n\n    /**\n     * @dev Cancels a trade by the seller.\n     */\n    function cancelTrade(PrntNFT _prntNFT, uint256 _prntId) public {\n        prntNFTData.updateStatus(prntNFT, \"Cancelled\");\n        \n        Trade storage trade = trades[_prntId];\n        require(\n            msg.sender == trade.seller,\n            \"Trade can be cancelled only by seller.\"\n        );\n        require(trade.status == \"Open\", \"Trade is not Open.\");\n        prntNFT.transferFrom(address(this), trade.seller, trade.prntId);\n        trades[_prntId].status = \"Cancelled\";\n        emit TradeStatusChange(_prntId, \"Cancelled\");\n    }\n\n    /**\n     * @dev Executes a trade. Must have approved this contract to transfer the amount of currency specified to the seller. Transfers ownership of the prntId to the filler.\n     */\n    function transferOwnershipOfPrntNFT(PrntNFT _prntNFT, uint256 _prntId, address _buyer) public {\n        PrntNFT prntNFT = _prntNFT;\n\n        Trade memory trade = getTrade(_prntId);\n        require(trade.status == \"Open\", \"Trade is not Open.\");\n\n        _updateSeller(_prntNFT, _prntId, _buyer);\n\n        prntNFT.transferFrom(address(this), _buyer, trade.prntId);\n        getTrade(_prntId).status = \"Cancelled\";\n        emit TradeStatusChange(_prntId, \"Cancelled\");\n    }\n\n    function _updateSeller(PrntNFT _prntNFT, uint256 _prntId, address _newSeller) internal {\n        Trade storage trade = trades[_prntId];\n        trade.seller = _newSeller;\n    }\n\n\n    /**\n     * @dev - Returns the details for a trade.\n     */\n    function getTrade(uint256 _prntId) public view returns (Trade memory trade_) {\n        Trade memory trade = trades[_prntId];\n        return trade;\n        //return (trade.seller, trade.prntId, trade.prntPrice, trade.status);\n    }\n}\n",
  "sourcePath": "C:/Users/NEWMONEY/Desktop/PrntPlace-main/contracts/PrntNFTTradable.sol",
  "compiler": {
    "name": "solc",
    "version": "0.5.16+commit.9c3226ce.Emscripten.clang"
  },
  "schemaVersion": "3.3.4",
  "updatedAt": "2021-03-12T02:29:54.132Z",
  "devdoc": {
    "methods": {
      "cancelTrade(address,uint256)": {
        "details": "Cancels a trade by the seller."
      },
      "getTrade(uint256)": {
        "details": "- Returns the details for a trade."
      },
      "openTrade(address,uint256)": {
        "details": "Opens a trade by the seller."
      },
      "openTradeWhenCreateNewPrntNFT(address,uint256,uint256)": {
        "details": "Opens a new trade. Puts _prntId in escrow.",
        "params": {
          "_prntId": "The id for the prntId to trade.",
          "_prntPrice": "The amount of currency for which to trade the prntId."
        }
      },
      "transferOwnershipOfPrntNFT(address,uint256,address)": {
        "details": "Executes a trade. Must have approved this contract to transfer the amount of currency specified to the seller. Transfers ownership of the prntId to the filler."
      }
    },
    "title": "- PrntNFTTradable contract"
  },
  "userdoc": {
    "methods": {
      "openTradeWhenCreateNewPrntNFT(address,uint256,uint256)": {
        "notice": "- This method is only executed when a seller create a new PrntNFT"
      }
    },
    "notice": "- This contract has role that put on sale of prntNFTs"
  }
}