{
  "contractName": "PrntNFTFactory",
  "abi": [
    {
      "inputs": [
        {
          "internalType": "contract PrntNFTMarketplace",
          "name": "_prntNFTMarketplace",
          "type": "address"
        },
        {
          "internalType": "contract PrntNFTData",
          "name": "_prntNFTData",
          "type": "address"
        }
      ],
      "payable": false,
      "stateMutability": "nonpayable",
      "type": "constructor"
    },
    {
      "anonymous": false,
      "inputs": [
        {
          "indexed": false,
          "internalType": "uint256",
          "name": "tokenId",
          "type": "uint256"
        },
        {
          "indexed": false,
          "internalType": "uint256",
          "name": "reputationCount",
          "type": "uint256"
        }
      ],
      "name": "AddReputation",
      "type": "event"
    },
    {
      "anonymous": false,
      "inputs": [
        {
          "indexed": false,
          "internalType": "address",
          "name": "owner",
          "type": "address"
        },
        {
          "indexed": false,
          "internalType": "contract PrntNFT",
          "name": "prntNFT",
          "type": "address"
        },
        {
          "indexed": false,
          "internalType": "string",
          "name": "nftName",
          "type": "string"
        },
        {
          "indexed": false,
          "internalType": "string",
          "name": "nftSymbol",
          "type": "string"
        },
        {
          "indexed": false,
          "internalType": "uint256",
          "name": "prntPrice",
          "type": "uint256"
        },
        {
          "indexed": false,
          "internalType": "string",
          "name": "ipfsHashOfPrnt",
          "type": "string"
        }
      ],
      "name": "PrntNFTCreated",
      "type": "event"
    },
    {
      "constant": true,
      "inputs": [
        {
          "internalType": "uint256",
          "name": "",
          "type": "uint256"
        }
      ],
      "name": "prntAddresses",
      "outputs": [
        {
          "internalType": "address",
          "name": "",
          "type": "address"
        }
      ],
      "payable": false,
      "stateMutability": "view",
      "type": "function"
    },
    {
      "constant": true,
      "inputs": [],
      "name": "prntNFTData",
      "outputs": [
        {
          "internalType": "contract PrntNFTData",
          "name": "",
          "type": "address"
        }
      ],
      "payable": false,
      "stateMutability": "view",
      "type": "function"
    },
    {
      "constant": true,
      "inputs": [],
      "name": "prntNFTMarketplace",
      "outputs": [
        {
          "internalType": "contract PrntNFTMarketplace",
          "name": "",
          "type": "address"
        }
      ],
      "payable": false,
      "stateMutability": "view",
      "type": "function"
    },
    {
      "constant": false,
      "inputs": [
        {
          "internalType": "string",
          "name": "nftName",
          "type": "string"
        },
        {
          "internalType": "string",
          "name": "nftSymbol",
          "type": "string"
        },
        {
          "internalType": "uint256",
          "name": "prntPrice",
          "type": "uint256"
        },
        {
          "internalType": "string",
          "name": "ipfsHashOfPrnt",
          "type": "string"
        }
      ],
      "name": "createNewPrntNFT",
      "outputs": [
        {
          "internalType": "bool",
          "name": "",
          "type": "bool"
        }
      ],
      "payable": false,
      "stateMutability": "nonpayable",
      "type": "function"
    },
    {
      "constant": true,
      "inputs": [],
      "name": "baseTokenURI",
      "outputs": [
        {
          "internalType": "string",
          "name": "",
          "type": "string"
        }
      ],
      "payable": false,
      "stateMutability": "pure",
      "type": "function"
    },
    {
      "constant": true,
      "inputs": [
        {
          "internalType": "string",
          "name": "_ipfsHashOfPrnt",
          "type": "string"
        }
      ],
      "name": "getTokenURI",
      "outputs": [
        {
          "internalType": "string",
          "name": "",
          "type": "string"
        }
      ],
      "payable": false,
      "stateMutability": "view",
      "type": "function"
    }
  ],
  "bytecode": "0x608060405234801561001057600080fd5b50604051620030a4380380620030a483398101604081905261003191610084565b600280546001600160a01b03199081166001600160a01b03948516179182905560038054821693851693909317909255600180549190931691161790556100f7565b805161007e816100e0565b92915050565b6000806040838503121561009757600080fd5b60006100a38585610073565b92505060206100b485828601610073565b9150509250929050565b600061007e826100d4565b600061007e826100be565b6001600160a01b031690565b6100e9816100c9565b81146100f457600080fd5b50565b612f9d80620001076000396000f3fe60806040523480156200001157600080fd5b50600436106200006a5760003560e01c80631cefd298146200006f5780633b455a93146200009e578063976a452d14620000b7578063d3e1f6e314620000dd578063d547cfb71462000103578063dffa7b5a146200010d575b600080fd5b6200008662000080366004620007b6565b62000117565b604051620000959190620008fa565b60405180910390f35b620000a86200013f565b60405162000095919062000a8e565b620000ce620000c836600462000702565b6200014e565b60405162000095919062000a7e565b620000f4620000ee366004620006c9565b62000353565b60405162000095919062000ac1565b620000f462000370565b620000a86200039f565b600081815481106200012557fe5b6000918252602090912001546001600160a01b0316905081565b6003546001600160a01b031681565b60003360606200015e8462000353565b90506000828888848960405162000175906200061c565b6200018595949392919062000984565b604051809103906000f080158015620001a2573d6000803e3d6000fd5b50600080546001810182558180527f290decd9548b62a8d60345a988386fc84ba6bc95484008f6362f93160ef3e5630180546001600160a01b0319166001600160a01b0384811691909117909155600354604051633c6d1c4560e21b8152939450169163f1b4711491620002259185908d908d9033908e908e90600401620009ef565b602060405180830381600087803b1580156200024057600080fd5b505af115801562000255573d6000803e3d6000fd5b505050506040513d601f19601f820116820180604052506200027b9190810190620006a0565b50600354604051634dd5bfa560e11b81526001600160a01b0390911690639bab7f4a90620002ae90849060040162000a9e565b602060405180830381600087803b158015620002c957600080fd5b505af1158015620002de573d6000803e3d6000fd5b505050506040513d601f19601f82011682018060405250620003049190810190620006a0565b507fc53cccc9cdca43322264c4e2050423f71fa4db0acc32d31619d2ec3de28bb8dc33828a8a8a8a60405162000340969594939291906200090a565b60405180910390a1505050949350505050565b60606200036a6200036362000370565b83620003ae565b92915050565b60408051808201909152601581527468747470733a2f2f697066732e696f2f697066732f60581b602082015290565b6002546001600160a01b031681565b6060620003ec8383604051806020016040528060008152506040518060200160405280600081525060405180602001604052806000815250620003f3565b9392505050565b6060808690506060869050606086905060608690506060869050606081518351855187518951010101016040519080825280601f01601f19166020018201604052801562000448576020820181803883390190505b509050806000805b8851811015620004a5578881815181106200046757fe5b602001015160f81c60f81b8383806001019450815181106200048557fe5b60200101906001600160f81b031916908160001a90535060010162000450565b5060005b8751811015620004fe57878181518110620004c057fe5b602001015160f81c60f81b838380600101945081518110620004de57fe5b60200101906001600160f81b031916908160001a905350600101620004a9565b5060005b865181101562000557578681815181106200051957fe5b602001015160f81c60f81b8383806001019450815181106200053757fe5b60200101906001600160f81b031916908160001a90535060010162000502565b5060005b8551811015620005b0578581815181106200057257fe5b602001015160f81c60f81b8383806001019450815181106200059057fe5b60200101906001600160f81b031916908160001a9053506001016200055b565b5060005b84518110156200060957848181518110620005cb57fe5b602001015160f81c60f81b838380600101945081518110620005e957fe5b60200101906001600160f81b031916908160001a905350600101620005b4565b50909d9c50505050505050505050505050565b6123498062000c1283390190565b80516200036a8162000bec565b600082601f8301126200064957600080fd5b8135620006606200065a8262000afc565b62000ad4565b915080825260208301602083018583830111156200067d57600080fd5b6200068a83828462000b7e565b50505092915050565b80356200036a8162000c06565b600060208284031215620006b357600080fd5b6000620006c184846200062a565b949350505050565b600060208284031215620006dc57600080fd5b813567ffffffffffffffff811115620006f457600080fd5b620006c18482850162000637565b600080600080608085870312156200071957600080fd5b843567ffffffffffffffff8111156200073157600080fd5b6200073f8782880162000637565b945050602085013567ffffffffffffffff8111156200075d57600080fd5b6200076b8782880162000637565b93505060406200077e8782880162000693565b925050606085013567ffffffffffffffff8111156200079c57600080fd5b620007aa8782880162000637565b91505092959194509250565b600060208284031215620007c957600080fd5b6000620006c1848462000693565b6000620007e58383620007fe565b505060200190565b620007f88162000b69565b82525050565b620007f88162000b54565b6000620008168262000b31565b62000822818562000b3f565b93506200082f8362000b25565b8060005b838110156200086c57620008478262000bd4565b620008538882620007d7565b9750620008608362000b39565b92505060010162000833565b509495945050505050565b620007f88162000b61565b620007f88162000b71565b60006200089a8262000b35565b620008a6818562000b3f565b9350620008b881856020860162000b8a565b620008c38162000be2565b9093019392505050565b6000620008dc60048362000b3f565b6327b832b760e11b815260200192915050565b620007f88162000b66565b602081016200036a8284620007fe565b60c081016200091a8289620007ed565b62000929602083018862000882565b81810360408301526200093d81876200088d565b905081810360608301526200095381866200088d565b9050620009646080830185620008ef565b81810360a08301526200097881846200088d565b98975050505050505050565b60a08101620009948288620007fe565b8181036020830152620009a881876200088d565b90508181036040830152620009be81866200088d565b90508181036060830152620009d481856200088d565b9050620009e56080830184620008ef565b9695505050505050565b60e0808252810162000a02818a62000809565b905062000a13602083018962000882565b818103604083015262000a2781886200088d565b9050818103606083015262000a3d81876200088d565b905062000a4e6080830186620007ed565b62000a5d60a0830185620008ef565b81810360c083015262000a7181846200088d565b9998505050505050505050565b602081016200036a828462000877565b602081016200036a828462000882565b6040810162000aae828462000882565b8181036020830152620003ec81620008cd565b60208082528101620003ec81846200088d565b60405181810167ffffffffffffffff8111828210171562000af457600080fd5b604052919050565b600067ffffffffffffffff82111562000b1457600080fd5b506020601f91909101601f19160190565b60009081526020902090565b5490565b5190565b60010190565b90815260200190565b6001600160a01b031690565b60006200036a8262000b48565b151590565b90565b60006200036a825b60006200036a8262000b54565b82818337506000910152565b60005b8381101562000ba757818101518382015260200162000b8d565b8381111562000bb7576000848401525b50505050565b60006200036a62000bce8362000b66565b62000b48565b60006200036a825462000bbd565b601f01601f191690565b62000bf78162000b61565b811462000c0357600080fd5b50565b62000bf78162000b6656fe60806040523480156200001157600080fd5b506040516200234938038062002349833981810160405260a08110156200003757600080fd5b8151602083018051604051929492938301929190846401000000008211156200005f57600080fd5b9083019060208201858111156200007557600080fd5b82516401000000008111828201881017156200009057600080fd5b82525081516020918201929091019080838360005b83811015620000bf578181015183820152602001620000a5565b50505050905090810190601f168015620000ed5780820380516001836020036101000a031916815260200191505b50604052602001805160405193929190846401000000008211156200011157600080fd5b9083019060208201858111156200012757600080fd5b82516401000000008111828201881017156200014257600080fd5b82525081516020918201929091019080838360005b838110156200017157818101518382015260200162000157565b50505050905090810190601f1680156200019f5780820380516001836020036101000a031916815260200191505b5060405260200180516040519392919084640100000000821115620001c357600080fd5b908301906020820185811115620001d957600080fd5b8251640100000000811182820188101715620001f457600080fd5b82525081516020918201929091019080838360005b838110156200022357818101518382015260200162000209565b50505050905090810190601f168015620002515780820380516001836020036101000a031916815260200191505b506040526020015191508490508381816200027c6301ffc9a760e01b6001600160e01b036200031b16565b620002976380ac58cd60e01b6001600160e01b036200031b16565b620002b263780e9d6360e01b6001600160e01b036200031b16565b8151620002c790600990602085019062000725565b508051620002dd90600a90602084019062000725565b50620002f9635b5e139f60e01b6001600160e01b036200031b16565b505050506200030f8583620003a060201b60201c565b505050505050620007c7565b6001600160e01b031980821614156200037b576040805162461bcd60e51b815260206004820152601c60248201527f4552433136353a20696e76616c696420696e7465726661636520696400000000604482015290519081900360640190fd5b6001600160e01b0319166000908152602081905260409020805460ff19166001179055565b600080620003b66001600160e01b03620003f216565b600d805460010190559050620003d684826001600160e01b036200041716565b620003eb81846001600160e01b036200045b16565b5092915050565b6000620004116001600d54620004d260201b620014ae1790919060201c565b90505b90565b6200042e82826200053460201b6200150f1760201c565b6200044382826001600160e01b036200067d16565b62000457816001600160e01b03620006bb16565b5050565b6200046f826001600160e01b03620006ff16565b620004ac5760405162461bcd60e51b815260040180806020018281038252602c8152602001806200231d602c913960400191505060405180910390fd5b6000828152600c602090815260409091208251620004cd9284019062000725565b505050565b6000828201838110156200052d576040805162461bcd60e51b815260206004820152601b60248201527f536166654d6174683a206164646974696f6e206f766572666c6f770000000000604482015290519081900360640190fd5b9392505050565b6001600160a01b03821662000590576040805162461bcd60e51b815260206004820181905260248201527f4552433732313a206d696e7420746f20746865207a65726f2061646472657373604482015290519081900360640190fd5b620005a4816001600160e01b03620006ff16565b15620005f7576040805162461bcd60e51b815260206004820152601c60248201527f4552433732313a20746f6b656e20616c7265616479206d696e74656400000000604482015290519081900360640190fd5b600081815260016020908152604080832080546001600160a01b0319166001600160a01b03871690811790915583526003825290912062000641916200071c811b620016d817901c565b60405181906001600160a01b038416906000907fddf252ad1be2c89b69c2b068fc378daa952ba7f163c4a11628f55a4df523b3ef908290a45050565b6001600160a01b0390911660009081526005602081815260408084208054868652600684529185208290559282526001810183559183529091200155565b600780546000838152600860205260408120829055600182018355919091527fa66cc928b5edb82af9bd49922954155ab7b0942694bea4ce44661d9a8736c6880155565b6000908152600160205260409020546001600160a01b0316151590565b80546001019055565b828054600181600116156101000203166002900490600052602060002090601f016020900481019282601f106200076857805160ff191683800117855562000798565b8280016001018555821562000798579182015b82811115620007985782518255916020019190600101906200077b565b50620007a6929150620007aa565b5090565b6200041491905b80821115620007a65760008155600101620007b1565b611b4680620007d76000396000f3fe608060405234801561001057600080fd5b50600436106101215760003560e01c80636352211e116100ad578063b88d4fde11610071578063b88d4fde14610395578063c87b56dd1461045b578063d0def52114610478578063d452dce81461052e578063e985e9c51461053657610121565b80636352211e146103145780636c0360eb1461033157806370a082311461033957806395d89b411461035f578063a22cb4651461036757610121565b806318160ddd116100f457806318160ddd1461024557806323b872dd1461025f5780632f745c591461029557806342842e0e146102c15780634f6ccce7146102f757610121565b806301ffc9a71461012657806306fdde0314610161578063081812fc146101de578063095ea7b314610217575b600080fd5b61014d6004803603602081101561013c57600080fd5b50356001600160e01b031916610564565b604080519115158252519081900360200190f35b610169610587565b6040805160208082528351818301528351919283929083019185019080838360005b838110156101a357818101518382015260200161018b565b50505050905090810190601f1680156101d05780820380516001836020036101000a031916815260200191505b509250505060405180910390f35b6101fb600480360360208110156101f457600080fd5b503561061e565b604080516001600160a01b039092168252519081900360200190f35b6102436004803603604081101561022d57600080fd5b506001600160a01b038135169060200135610680565b005b61024d6107a8565b60408051918252519081900360200190f35b6102436004803603606081101561027557600080fd5b506001600160a01b038135811691602081013590911690604001356107ae565b61024d600480360360408110156102ab57600080fd5b506001600160a01b03813516906020013561080a565b610243600480360360608110156102d757600080fd5b506001600160a01b03813581169160208101359091169060400135610889565b61024d6004803603602081101561030d57600080fd5b50356108a4565b6101fb6004803603602081101561032a57600080fd5b503561090a565b610169610964565b61024d6004803603602081101561034f57600080fd5b50356001600160a01b03166109c5565b610169610a2d565b6102436004803603604081101561037d57600080fd5b506001600160a01b0381351690602001351515610a8e565b610243600480360360808110156103ab57600080fd5b6001600160a01b038235811692602081013590911691604082013591908101906080810160608201356401000000008111156103e657600080fd5b8201836020820111156103f857600080fd5b8035906020019184600183028401116401000000008311171561041a57600080fd5b91908080601f016020809104026020016040519081016040528093929190818152602001838380828437600092019190915250929550610b93945050505050565b6101696004803603602081101561047157600080fd5b5035610bf1565b61014d6004803603604081101561048e57600080fd5b6001600160a01b0382351691908101906040810160208201356401000000008111156104b957600080fd5b8201836020820111156104cb57600080fd5b803590602001918460018302840111640100000000831117156104ed57600080fd5b91908080601f016020809104026020016040519081016040528093929190818152602001838380828437600092019190915250929550610dbd945050505050565b61024d610dee565b61014d6004803603604081101561054c57600080fd5b506001600160a01b0381358116916020013516610df4565b6001600160e01b0319811660009081526020819052604090205460ff165b919050565b60098054604080516020601f60026000196101006001881615020190951694909404938401819004810282018101909252828152606093909290918301828280156106135780601f106105e857610100808354040283529160200191610613565b820191906000526020600020905b8154815290600101906020018083116105f657829003601f168201915b505050505090505b90565b600061062982610e22565b6106645760405162461bcd60e51b815260040180806020018281038252602c8152602001806119e4602c913960400191505060405180910390fd5b506000908152600260205260409020546001600160a01b031690565b600061068b8261090a565b9050806001600160a01b0316836001600160a01b031614156106de5760405162461bcd60e51b8152600401808060200182810382526021815260200180611a946021913960400191505060405180910390fd5b806001600160a01b03166106f0610e3f565b6001600160a01b0316148061071157506107118161070c610e3f565b610df4565b61074c5760405162461bcd60e51b81526004018080602001828103825260388152602001806119596038913960400191505060405180910390fd5b60008281526002602052604080822080546001600160a01b0319166001600160a01b0387811691821790925591518593918516917f8c5be1e5ebec7d5bd14f71427d1e84f3dd0314c0f7b2291e5b200ac8c7c3b92591a4505050565b60075490565b6107bf6107b9610e3f565b82610e43565b6107fa5760405162461bcd60e51b8152600401808060200182810382526031815260200180611ab56031913960400191505060405180910390fd5b610805838383610ee7565b505050565b6000610815836109c5565b82106108525760405162461bcd60e51b815260040180806020018281038252602b8152602001806118ac602b913960400191505060405180910390fd5b6001600160a01b038316600090815260056020526040902080548390811061087657fe5b9060005260206000200154905092915050565b61080583838360405180602001604052806000815250610b93565b60006108ae6107a8565b82106108eb5760405162461bcd60e51b815260040180806020018281038252602c815260200180611ae6602c913960400191505060405180910390fd5b600782815481106108f857fe5b90600052602060002001549050919050565b6000818152600160205260408120546001600160a01b03168061095e5760405162461bcd60e51b81526004018080602001828103825260298152602001806119bb6029913960400191505060405180910390fd5b92915050565b600b8054604080516020601f60026000196101006001881615020190951694909404938401819004810282018101909252828152606093909290918301828280156106135780601f106105e857610100808354040283529160200191610613565b60006001600160a01b038216610a0c5760405162461bcd60e51b815260040180806020018281038252602a815260200180611991602a913960400191505060405180910390fd5b6001600160a01b038216600090815260036020526040902061095e90610f06565b600a8054604080516020601f60026000196101006001881615020190951694909404938401819004810282018101909252828152606093909290918301828280156106135780601f106105e857610100808354040283529160200191610613565b610a96610e3f565b6001600160a01b0316826001600160a01b03161415610afc576040805162461bcd60e51b815260206004820152601960248201527f4552433732313a20617070726f766520746f2063616c6c657200000000000000604482015290519081900360640190fd5b8060046000610b09610e3f565b6001600160a01b03908116825260208083019390935260409182016000908120918716808252919093529120805460ff191692151592909217909155610b4d610e3f565b60408051841515815290516001600160a01b0392909216917f17307eab39ab6107e8899845ad3d59bd9653f200f220920489ca2b5937696c319181900360200190a35050565b610ba4610b9e610e3f565b83610e43565b610bdf5760405162461bcd60e51b8152600401808060200182810382526031815260200180611ab56031913960400191505060405180910390fd5b610beb84848484610f0a565b50505050565b6060610bfc82610e22565b610c375760405162461bcd60e51b815260040180806020018281038252602f815260200180611a65602f913960400191505060405180910390fd5b6000828152600c602090815260409182902080548351601f6002600019610100600186161502019093169290920491820184900484028101840190945280845260609392830182828015610ccc5780601f10610ca157610100808354040283529160200191610ccc565b820191906000526020600020905b815481529060010190602001808311610caf57829003601f168201915b50505050509050805160001415610cf3575050604080516020810190915260008152610582565b600b816040516020018083805460018160011615610100020316600290048015610d545780601f10610d32576101008083540402835291820191610d54565b820191906000526020600020905b815481529060010190602001808311610d40575b5050825160208401908083835b60208310610d805780518252601f199092019160209182019101610d61565b6001836020036101000a03801982511681845116808217855250505050505090500192505050604051602081830303815290604052915050610582565b600080610dc8610f5c565b600d805460010190559050610ddd8482610f78565b610de78184610f99565b5092915050565b600d5481565b6001600160a01b03918216600090815260046020908152604080832093909416825291909152205460ff1690565b6000908152600160205260409020546001600160a01b0316151590565b3390565b6000610e4e82610e22565b610e895760405162461bcd60e51b815260040180806020018281038252602c81526020018061192d602c913960400191505060405180910390fd5b6000610e948361090a565b9050806001600160a01b0316846001600160a01b03161480610ecf5750836001600160a01b0316610ec48461061e565b6001600160a01b0316145b80610edf5750610edf8185610df4565b949350505050565b610ef2838383610ffc565b610efc8382611140565b6108058282611235565b5490565b610f15848484610ee7565b610f2184848484611273565b610beb5760405162461bcd60e51b81526004018080602001828103825260328152602001806118d76032913960400191505060405180910390fd5b600d54600090610f7390600163ffffffff6114ae16565b905090565b610f82828261150f565b610f8c8282611235565b610f9581611640565b5050565b610fa282610e22565b610fdd5760405162461bcd60e51b815260040180806020018281038252602c815260200180611a10602c913960400191505060405180910390fd5b6000828152600c602090815260409091208251610805928401906117f3565b826001600160a01b031661100f8261090a565b6001600160a01b0316146110545760405162461bcd60e51b8152600401808060200182810382526029815260200180611a3c6029913960400191505060405180910390fd5b6001600160a01b0382166110995760405162461bcd60e51b81526004018080602001828103825260248152602001806119096024913960400191505060405180910390fd5b6110a281611684565b6001600160a01b03831660009081526003602052604090206110c3906116c1565b6001600160a01b03821660009081526003602052604090206110e4906116d8565b60008181526001602052604080822080546001600160a01b0319166001600160a01b0386811691821790925591518493918716917fddf252ad1be2c89b69c2b068fc378daa952ba7f163c4a11628f55a4df523b3ef91a4505050565b6001600160a01b03821660009081526005602052604081205461116a90600163ffffffff6116e116565b600083815260066020526040902054909150808214611205576001600160a01b03841660009081526005602052604081208054849081106111a757fe5b906000526020600020015490508060056000876001600160a01b03166001600160a01b0316815260200190815260200160002083815481106111e557fe5b600091825260208083209091019290925591825260069052604090208190555b6001600160a01b038416600090815260056020526040902080549061122e906000198301611871565b5050505050565b6001600160a01b0390911660009081526005602081815260408084208054868652600684529185208290559282526001810183559183529091200155565b6000611287846001600160a01b0316611723565b61129357506001610edf565b600060606001600160a01b038616630a85bd0160e11b6112b1610e3f565b89888860405160240180856001600160a01b03166001600160a01b03168152602001846001600160a01b03166001600160a01b0316815260200183815260200180602001828103825283818151815260200191508051906020019080838360005b8381101561132a578181015183820152602001611312565b50505050905090810190601f1680156113575780820380516001836020036101000a031916815260200191505b5060408051601f198184030181529181526020820180516001600160e01b03166001600160e01b0319909a16999099178952518151919890975087965094509250829150849050835b602083106113bf5780518252601f1990920191602091820191016113a0565b6001836020036101000a0380198251168184511680821785525050505050509050019150506000604051808303816000865af19150503d8060008114611421576040519150601f19603f3d011682016040523d82523d6000602084013e611426565b606091505b509150915081611477578051156114405780518082602001fd5b60405162461bcd60e51b81526004018080602001828103825260328152602001806118d76032913960400191505060405180910390fd5b600081806020019051602081101561148e57600080fd5b50516001600160e01b031916630a85bd0160e11b149350610edf92505050565b600082820183811015611508576040805162461bcd60e51b815260206004820152601b60248201527f536166654d6174683a206164646974696f6e206f766572666c6f770000000000604482015290519081900360640190fd5b9392505050565b6001600160a01b03821661156a576040805162461bcd60e51b815260206004820181905260248201527f4552433732313a206d696e7420746f20746865207a65726f2061646472657373604482015290519081900360640190fd5b61157381610e22565b156115c5576040805162461bcd60e51b815260206004820152601c60248201527f4552433732313a20746f6b656e20616c7265616479206d696e74656400000000604482015290519081900360640190fd5b600081815260016020908152604080832080546001600160a01b0319166001600160a01b038716908117909155835260039091529020611604906116d8565b60405181906001600160a01b038416906000907fddf252ad1be2c89b69c2b068fc378daa952ba7f163c4a11628f55a4df523b3ef908290a45050565b600780546000838152600860205260408120829055600182018355919091527fa66cc928b5edb82af9bd49922954155ab7b0942694bea4ce44661d9a8736c6880155565b6000818152600260205260409020546001600160a01b0316156116be57600081815260026020526040902080546001600160a01b03191690555b50565b80546116d490600163ffffffff6116e116565b9055565b80546001019055565b600061150883836040518060400160405280601e81526020017f536166654d6174683a207375627472616374696f6e206f766572666c6f77000081525061175c565b6000813f7fc5d2460186f7233c927e7db2dcc703c0e500b653ca82273b7bfad8045d85a470818114801590610edf575050151592915050565b600081848411156117eb5760405162461bcd60e51b81526004018080602001828103825283818151815260200191508051906020019080838360005b838110156117b0578181015183820152602001611798565b50505050905090810190601f1680156117dd5780820380516001836020036101000a031916815260200191505b509250505060405180910390fd5b505050900390565b828054600181600116156101000203166002900490600052602060002090601f016020900481019282601f1061183457805160ff1916838001178555611861565b82800160010185558215611861579182015b82811115611861578251825591602001919060010190611846565b5061186d929150611891565b5090565b815481835581811115610805576000838152602090206108059181019083015b61061b91905b8082111561186d576000815560010161189756fe455243373231456e756d657261626c653a206f776e657220696e646578206f7574206f6620626f756e64734552433732313a207472616e7366657220746f206e6f6e20455243373231526563656976657220696d706c656d656e7465724552433732313a207472616e7366657220746f20746865207a65726f20616464726573734552433732313a206f70657261746f7220717565727920666f72206e6f6e6578697374656e7420746f6b656e4552433732313a20617070726f76652063616c6c6572206973206e6f74206f776e6572206e6f7220617070726f76656420666f7220616c6c4552433732313a2062616c616e636520717565727920666f7220746865207a65726f20616464726573734552433732313a206f776e657220717565727920666f72206e6f6e6578697374656e7420746f6b656e4552433732313a20617070726f76656420717565727920666f72206e6f6e6578697374656e7420746f6b656e4552433732314d657461646174613a2055524920736574206f66206e6f6e6578697374656e7420746f6b656e4552433732313a207472616e73666572206f6620746f6b656e2074686174206973206e6f74206f776e4552433732314d657461646174613a2055524920717565727920666f72206e6f6e6578697374656e7420746f6b656e4552433732313a20617070726f76616c20746f2063757272656e74206f776e65724552433732313a207472616e736665722063616c6c6572206973206e6f74206f776e6572206e6f7220617070726f766564455243373231456e756d657261626c653a20676c6f62616c20696e646578206f7574206f6620626f756e6473a265627a7a7231582093ed74cb16ea629659ca3dcf018e6b60fbc4abf757d734c73d4ebb9d0695ef2764736f6c634300051000324552433732314d657461646174613a2055524920736574206f66206e6f6e6578697374656e7420746f6b656ea365627a7a7231582067a1089fc476c9f1581e73c3c11d685d8044a74a39e9fb0e7285de28c5db47cd6c6578706572696d656e74616cf564736f6c63430005100040",
  "source": "pragma solidity >=0.5.0;\npragma experimental ABIEncoderV2;\n\nimport { SafeMath } from \"@openzeppelin/contracts/math/SafeMath.sol\";\nimport { Strings } from \"./libraries/Strings.sol\";\nimport { PrntNFTFactoryStorages } from \"./prnt-nft-factory/commons/PrntNFTFactoryStorages.sol\";\nimport { PrntNFT } from \"./PrntNFT.sol\";\nimport { PrntNFTMarketplace } from \"./PrntNFTMarketplace.sol\";\nimport { PrntNFTData } from \"./PrntNFTData.sol\";\n\n\n/**\n * @notice - This is the factory contract for a NFT of prnt\n */\ncontract PrntNFTFactory is PrntNFTFactoryStorages {\n    using SafeMath for uint256;\n    using Strings for string;    \n\n    address[] public prntAddresses;\n    address PRNT_NFT_MARKETPLACE;\n\n    PrntNFTMarketplace public prntNFTMarketplace;\n    PrntNFTData public prntNFTData;\n\n    constructor(PrntNFTMarketplace _prntNFTMarketplace, PrntNFTData _prntNFTData) public {\n        prntNFTMarketplace = _prntNFTMarketplace;\n        prntNFTData = _prntNFTData;\n        PRNT_NFT_MARKETPLACE = address(prntNFTMarketplace);\n    }\n\n    /**\n     * @notice - Create a new prntNFT when a seller (owner) upload a prnt onto IPFS\n     */\n    function createNewPrntNFT(string memory nftName, string memory nftSymbol, uint prntPrice, string memory ipfsHashOfPrnt) public returns (bool) {\n        address owner = msg.sender;  /// [Note]: Initial owner of prntNFT is msg.sender\n        string memory tokenURI = getTokenURI(ipfsHashOfPrnt);  /// [Note]: IPFS hash + URL\n        PrntNFT prntNFT = new PrntNFT(owner, nftName, nftSymbol, tokenURI, prntPrice);\n        prntAddresses.push(address(prntNFT));\n\n        /// Save metadata of a prntNFT created\n        prntNFTData.saveMetadataOfPrntNFT(prntAddresses, prntNFT, nftName, nftSymbol, msg.sender, prntPrice, ipfsHashOfPrnt);\n        prntNFTData.updateStatus(prntNFT, \"Open\");\n\n        emit PrntNFTCreated(msg.sender, prntNFT, nftName, nftSymbol, prntPrice, ipfsHashOfPrnt);\n    }\n\n\n    ///-----------------\n    /// Getter methods\n    ///-----------------\n    function baseTokenURI() public pure returns (string memory) {\n        return \"https://ipfs.io/ipfs/\";\n    }\n\n    function getTokenURI(string memory _ipfsHashOfPrnt) public view returns (string memory) {\n        return Strings.strConcat(baseTokenURI(), _ipfsHashOfPrnt);\n    }\n\n}\n",
  "sourcePath": "C:/Users/NEWMONEY/Desktop/PrntPlace-main/contracts/PrntNFTFactory.sol",
  "compiler": {
    "name": "solc",
    "version": "0.5.16+commit.9c3226ce.Emscripten.clang"
  },
  "schemaVersion": "3.3.4",
  "updatedAt": "2021-03-12T02:39:05.529Z",
  "networkType": "ethereum",
  "devdoc": {
    "methods": {}
  },
  "userdoc": {
    "methods": {
      "baseTokenURI()": {
        "notice": "----------------- Getter methods -----------------"
      },
      "createNewPrntNFT(string,string,uint256,string)": {
        "notice": "- Create a new prntNFT when a seller (owner) upload a prnt onto IPFS"
      }
    },
    "notice": "- This is the factory contract for a NFT of prnt"
  }
}