{
  "contractName": "PrntNFT",
  "abi": [
    {
      "inputs": [
        {
          "internalType": "address",
          "name": "owner",
          "type": "address"
        },
        {
          "internalType": "string",
          "name": "_nftName",
          "type": "string"
        },
        {
          "internalType": "string",
          "name": "_nftSymbol",
          "type": "string"
        },
        {
          "internalType": "string",
          "name": "_tokenURI",
          "type": "string"
        },
        {
          "internalType": "uint256",
          "name": "prntPrice",
          "type": "uint256"
        }
      ],
      "payable": false,
      "stateMutability": "nonpayable",
      "type": "constructor"
    },
    {
      "anonymous": false,
      "inputs": [
        {
          "indexed": true,
          "internalType": "address",
          "name": "owner",
          "type": "address"
        },
        {
          "indexed": true,
          "internalType": "address",
          "name": "approved",
          "type": "address"
        },
        {
          "indexed": true,
          "internalType": "uint256",
          "name": "tokenId",
          "type": "uint256"
        }
      ],
      "name": "Approval",
      "type": "event"
    },
    {
      "anonymous": false,
      "inputs": [
        {
          "indexed": true,
          "internalType": "address",
          "name": "owner",
          "type": "address"
        },
        {
          "indexed": true,
          "internalType": "address",
          "name": "operator",
          "type": "address"
        },
        {
          "indexed": false,
          "internalType": "bool",
          "name": "approved",
          "type": "bool"
        }
      ],
      "name": "ApprovalForAll",
      "type": "event"
    },
    {
      "anonymous": false,
      "inputs": [
        {
          "indexed": true,
          "internalType": "address",
          "name": "from",
          "type": "address"
        },
        {
          "indexed": true,
          "internalType": "address",
          "name": "to",
          "type": "address"
        },
        {
          "indexed": true,
          "internalType": "uint256",
          "name": "tokenId",
          "type": "uint256"
        }
      ],
      "name": "Transfer",
      "type": "event"
    },
    {
      "constant": false,
      "inputs": [
        {
          "internalType": "address",
          "name": "to",
          "type": "address"
        },
        {
          "internalType": "uint256",
          "name": "tokenId",
          "type": "uint256"
        }
      ],
      "name": "approve",
      "outputs": [],
      "payable": false,
      "stateMutability": "nonpayable",
      "type": "function"
    },
    {
      "constant": true,
      "inputs": [
        {
          "internalType": "address",
          "name": "owner",
          "type": "address"
        }
      ],
      "name": "balanceOf",
      "outputs": [
        {
          "internalType": "uint256",
          "name": "",
          "type": "uint256"
        }
      ],
      "payable": false,
      "stateMutability": "view",
      "type": "function"
    },
    {
      "constant": true,
      "inputs": [],
      "name": "baseURI",
      "outputs": [
        {
          "internalType": "string",
          "name": "",
          "type": "string"
        }
      ],
      "payable": false,
      "stateMutability": "view",
      "type": "function"
    },
    {
      "constant": true,
      "inputs": [],
      "name": "currentPrntId",
      "outputs": [
        {
          "internalType": "uint256",
          "name": "",
          "type": "uint256"
        }
      ],
      "payable": false,
      "stateMutability": "view",
      "type": "function"
    },
    {
      "constant": true,
      "inputs": [
        {
          "internalType": "uint256",
          "name": "tokenId",
          "type": "uint256"
        }
      ],
      "name": "getApproved",
      "outputs": [
        {
          "internalType": "address",
          "name": "",
          "type": "address"
        }
      ],
      "payable": false,
      "stateMutability": "view",
      "type": "function"
    },
    {
      "constant": true,
      "inputs": [
        {
          "internalType": "address",
          "name": "owner",
          "type": "address"
        },
        {
          "internalType": "address",
          "name": "operator",
          "type": "address"
        }
      ],
      "name": "isApprovedForAll",
      "outputs": [
        {
          "internalType": "bool",
          "name": "",
          "type": "bool"
        }
      ],
      "payable": false,
      "stateMutability": "view",
      "type": "function"
    },
    {
      "constant": true,
      "inputs": [],
      "name": "name",
      "outputs": [
        {
          "internalType": "string",
          "name": "",
          "type": "string"
        }
      ],
      "payable": false,
      "stateMutability": "view",
      "type": "function"
    },
    {
      "constant": true,
      "inputs": [
        {
          "internalType": "uint256",
          "name": "tokenId",
          "type": "uint256"
        }
      ],
      "name": "ownerOf",
      "outputs": [
        {
          "internalType": "address",
          "name": "",
          "type": "address"
        }
      ],
      "payable": false,
      "stateMutability": "view",
      "type": "function"
    },
    {
      "constant": false,
      "inputs": [
        {
          "internalType": "address",
          "name": "from",
          "type": "address"
        },
        {
          "internalType": "address",
          "name": "to",
          "type": "address"
        },
        {
          "internalType": "uint256",
          "name": "tokenId",
          "type": "uint256"
        }
      ],
      "name": "safeTransferFrom",
      "outputs": [],
      "payable": false,
      "stateMutability": "nonpayable",
      "type": "function"
    },
    {
      "constant": false,
      "inputs": [
        {
          "internalType": "address",
          "name": "from",
          "type": "address"
        },
        {
          "internalType": "address",
          "name": "to",
          "type": "address"
        },
        {
          "internalType": "uint256",
          "name": "tokenId",
          "type": "uint256"
        },
        {
          "internalType": "bytes",
          "name": "_data",
          "type": "bytes"
        }
      ],
      "name": "safeTransferFrom",
      "outputs": [],
      "payable": false,
      "stateMutability": "nonpayable",
      "type": "function"
    },
    {
      "constant": false,
      "inputs": [
        {
          "internalType": "address",
          "name": "to",
          "type": "address"
        },
        {
          "internalType": "bool",
          "name": "approved",
          "type": "bool"
        }
      ],
      "name": "setApprovalForAll",
      "outputs": [],
      "payable": false,
      "stateMutability": "nonpayable",
      "type": "function"
    },
    {
      "constant": true,
      "inputs": [
        {
          "internalType": "bytes4",
          "name": "interfaceId",
          "type": "bytes4"
        }
      ],
      "name": "supportsInterface",
      "outputs": [
        {
          "internalType": "bool",
          "name": "",
          "type": "bool"
        }
      ],
      "payable": false,
      "stateMutability": "view",
      "type": "function"
    },
    {
      "constant": true,
      "inputs": [],
      "name": "symbol",
      "outputs": [
        {
          "internalType": "string",
          "name": "",
          "type": "string"
        }
      ],
      "payable": false,
      "stateMutability": "view",
      "type": "function"
    },
    {
      "constant": true,
      "inputs": [
        {
          "internalType": "uint256",
          "name": "index",
          "type": "uint256"
        }
      ],
      "name": "tokenByIndex",
      "outputs": [
        {
          "internalType": "uint256",
          "name": "",
          "type": "uint256"
        }
      ],
      "payable": false,
      "stateMutability": "view",
      "type": "function"
    },
    {
      "constant": true,
      "inputs": [
        {
          "internalType": "address",
          "name": "owner",
          "type": "address"
        },
        {
          "internalType": "uint256",
          "name": "index",
          "type": "uint256"
        }
      ],
      "name": "tokenOfOwnerByIndex",
      "outputs": [
        {
          "internalType": "uint256",
          "name": "",
          "type": "uint256"
        }
      ],
      "payable": false,
      "stateMutability": "view",
      "type": "function"
    },
    {
      "constant": true,
      "inputs": [
        {
          "internalType": "uint256",
          "name": "tokenId",
          "type": "uint256"
        }
      ],
      "name": "tokenURI",
      "outputs": [
        {
          "internalType": "string",
          "name": "",
          "type": "string"
        }
      ],
      "payable": false,
      "stateMutability": "view",
      "type": "function"
    },
    {
      "constant": true,
      "inputs": [],
      "name": "totalSupply",
      "outputs": [
        {
          "internalType": "uint256",
          "name": "",
          "type": "uint256"
        }
      ],
      "payable": false,
      "stateMutability": "view",
      "type": "function"
    },
    {
      "constant": false,
      "inputs": [
        {
          "internalType": "address",
          "name": "from",
          "type": "address"
        },
        {
          "internalType": "address",
          "name": "to",
          "type": "address"
        },
        {
          "internalType": "uint256",
          "name": "tokenId",
          "type": "uint256"
        }
      ],
      "name": "transferFrom",
      "outputs": [],
      "payable": false,
      "stateMutability": "nonpayable",
      "type": "function"
    },
    {
      "constant": false,
      "inputs": [
        {
          "internalType": "address",
          "name": "to",
          "type": "address"
        },
        {
          "internalType": "string",
          "name": "tokenURI",
          "type": "string"
        }
      ],
      "name": "mint",
      "outputs": [
        {
          "internalType": "bool",
          "name": "",
          "type": "bool"
        }
      ],
      "payable": false,
      "stateMutability": "nonpayable",
      "type": "function"
    }
  ],
  "bytecode": "0x60806040523480156200001157600080fd5b506040516200257d3803806200257d833981016040819052620000349162000535565b83838181620000536301ffc9a760e01b6001600160e01b03620000f216565b6200006e6380ac58cd60e01b6001600160e01b03620000f216565b6200008963780e9d6360e01b6001600160e01b03620000f216565b81516200009e9060099060208501906200041d565b508051620000b490600a9060208401906200041d565b50620000d0635b5e139f60e01b6001600160e01b03620000f216565b50505050620000e685836200014d60201b60201c565b50505050505062000855565b6001600160e01b03198082161415620001285760405162461bcd60e51b81526004016200011f9062000739565b60405180910390fd5b6001600160e01b0319166000908152602081905260409020805460ff19166001179055565b600080620001636001600160e01b036200019f16565b600d8054600101905590506200018384826001600160e01b03620001c416565b6200019881846001600160e01b036200020816565b5092915050565b6000620001be6001600d546200026160201b62000e381790919060201c565b90505b90565b620001db82826200029260201b62000e641760201c565b620001f082826001600160e01b036200037516565b62000204816001600160e01b03620003b316565b5050565b6200021c826001600160e01b03620003f716565b6200023b5760405162461bcd60e51b81526004016200011f9062000781565b6000828152600c6020908152604090912082516200025c928401906200041d565b505050565b600082820183811015620002895760405162461bcd60e51b81526004016200011f906200075d565b90505b92915050565b6001600160a01b038216620002bb5760405162461bcd60e51b81526004016200011f906200076f565b620002cf816001600160e01b03620003f716565b15620002ef5760405162461bcd60e51b81526004016200011f906200074b565b600081815260016020908152604080832080546001600160a01b0319166001600160a01b038716908117909155835260038252909120620003399162000414811b62000fc317901c565b60405181906001600160a01b038416906000907fddf252ad1be2c89b69c2b068fc378daa952ba7f163c4a11628f55a4df523b3ef908290a45050565b6001600160a01b0390911660009081526005602081815260408084208054868652600684529185208290559282526001810183559183529091200155565b600780546000838152600860205260408120829055600182018355919091527fa66cc928b5edb82af9bd49922954155ab7b0942694bea4ce44661d9a8736c6880155565b6000908152600160205260409020546001600160a01b0316151590565b80546001019055565b828054600181600116156101000203166002900490600052602060002090601f016020900481019282601f106200046057805160ff191683800117855562000490565b8280016001018555821562000490579182015b828111156200049057825182559160200191906001019062000473565b506200049e929150620004a2565b5090565b620001c191905b808211156200049e5760008155600101620004a9565b80516200028c8162000830565b600082601f830112620004de57600080fd5b8151620004f5620004ef82620007ba565b62000793565b915080825260208301602083018583830111156200051257600080fd5b6200051f838284620007fd565b50505092915050565b80516200028c816200084a565b600080600080600060a086880312156200054e57600080fd5b60006200055c8888620004bf565b95505060208601516001600160401b038111156200057957600080fd5b6200058788828901620004cc565b94505060408601516001600160401b03811115620005a457600080fd5b620005b288828901620004cc565b93505060608601516001600160401b03811115620005cf57600080fd5b620005dd88828901620004cc565b9250506080620005f08882890162000528565b9150509295509295909350565b60006200060c601c83620007e2565b7f4552433136353a20696e76616c696420696e7465726661636520696400000000815260200192915050565b600062000647601c83620007e2565b7f4552433732313a20746f6b656e20616c7265616479206d696e74656400000000815260200192915050565b600062000682601b83620007e2565b7f536166654d6174683a206164646974696f6e206f766572666c6f770000000000815260200192915050565b6000620006bd602083620007e2565b7f4552433732313a206d696e7420746f20746865207a65726f2061646472657373815260200192915050565b6000620006f8602c83620007e2565b7f4552433732314d657461646174613a2055524920736574206f66206e6f6e657881526b34b9ba32b73a103a37b5b2b760a11b602082015260400192915050565b602080825281016200028c81620005fd565b602080825281016200028c8162000638565b602080825281016200028c8162000673565b602080825281016200028c81620006ae565b602080825281016200028c81620006e9565b6040518181016001600160401b0381118282101715620007b257600080fd5b604052919050565b60006001600160401b03821115620007d157600080fd5b506020601f91909101601f19160190565b90815260200190565b60006001600160a01b0382166200028c565b60005b838110156200081a57818101518382015260200162000800565b838111156200082a576000848401525b50505050565b6200083b81620007eb565b81146200084757600080fd5b50565b6200083b81620001c1565b611d1880620008656000396000f3fe608060405234801561001057600080fd5b50600436106101215760003560e01c80636352211e116100ad578063b88d4fde11610071578063b88d4fde14610243578063c87b56dd14610256578063d0def52114610269578063d452dce81461027c578063e985e9c51461028457610121565b80636352211e146101fa5780636c0360eb1461020d57806370a082311461021557806395d89b4114610228578063a22cb4651461023057610121565b806318160ddd116100f457806318160ddd1461019957806323b872dd146101ae5780632f745c59146101c157806342842e0e146101d45780634f6ccce7146101e757610121565b806301ffc9a71461012657806306fdde031461014f578063081812fc14610164578063095ea7b314610184575b600080fd5b61013961013436600461137c565b610297565b6040516101469190611a86565b60405180910390f35b6101576102ba565b6040516101469190611a94565b6101776101723660046113b8565b610351565b6040516101469190611a34565b61019761019236600461134c565b61039d565b005b6101a1610482565b6040516101469190611bc5565b6101976101bc36600461120e565b610488565b6101a16101cf36600461134c565b6104c5565b6101976101e236600461120e565b610526565b6101a16101f53660046113b8565b610541565b6101776102083660046113b8565b610588565b6101576105bd565b6101a16102233660046111b6565b61061e565b610157610667565b61019761023e3660046112d4565b6106c8565b61019761025136600461125b565b610796565b6101576102643660046113b8565b6107d5565b610139610277366004611304565b6108e3565b6101a1610914565b6101396102923660046111d4565b61091a565b6001600160e01b0319811660009081526020819052604090205460ff165b919050565b60098054604080516020601f60026000196101006001881615020190951694909404938401819004810282018101909252828152606093909290918301828280156103465780601f1061031b57610100808354040283529160200191610346565b820191906000526020600020905b81548152906001019060200180831161032957829003601f168201915b505050505090505b90565b600061035c82610948565b6103815760405162461bcd60e51b815260040161037890611b55565b60405180910390fd5b506000908152600260205260409020546001600160a01b031690565b60006103a882610588565b9050806001600160a01b0316836001600160a01b031614156103dc5760405162461bcd60e51b815260040161037890611b95565b806001600160a01b03166103ee610965565b6001600160a01b0316148061040a575061040a81610292610965565b6104265760405162461bcd60e51b815260040161037890611b15565b60008281526002602052604080822080546001600160a01b0319166001600160a01b0387811691821790925591518593918516917f8c5be1e5ebec7d5bd14f71427d1e84f3dd0314c0f7b2291e5b200ac8c7c3b92591a4505050565b60075490565b610499610493610965565b82610969565b6104b55760405162461bcd60e51b815260040161037890611ba5565b6104c08383836109ee565b505050565b60006104d08361061e565b82106104ee5760405162461bcd60e51b815260040161037890611aa5565b6001600160a01b038316600090815260056020526040902080548390811061051257fe5b906000526020600020015490505b92915050565b6104c083838360405180602001604052806000815250610796565b600061054b610482565b82106105695760405162461bcd60e51b815260040161037890611bb5565b6007828154811061057657fe5b90600052602060002001549050919050565b6000818152600160205260408120546001600160a01b0316806105205760405162461bcd60e51b815260040161037890611b35565b600b8054604080516020601f60026000196101006001881615020190951694909404938401819004810282018101909252828152606093909290918301828280156103465780601f1061031b57610100808354040283529160200191610346565b60006001600160a01b0382166106465760405162461bcd60e51b815260040161037890611b25565b6001600160a01b038216600090815260036020526040902061052090610a0d565b600a8054604080516020601f60026000196101006001881615020190951694909404938401819004810282018101909252828152606093909290918301828280156103465780601f1061031b57610100808354040283529160200191610346565b6106d0610965565b6001600160a01b0316826001600160a01b031614156107015760405162461bcd60e51b815260040161037890611af5565b806004600061070e610965565b6001600160a01b03908116825260208083019390935260409182016000908120918716808252919093529120805460ff191692151592909217909155610752610965565b6001600160a01b03167f17307eab39ab6107e8899845ad3d59bd9653f200f220920489ca2b5937696c318360405161078a9190611a86565b60405180910390a35050565b6107a76107a1610965565b83610969565b6107c35760405162461bcd60e51b815260040161037890611ba5565b6107cf84848484610a11565b50505050565b60606107e082610948565b6107fc5760405162461bcd60e51b815260040161037890611b85565b6000828152600c602090815260409182902080548351601f60026000196101006001861615020190931692909204918201849004840281018401909452808452606093928301828280156108915780601f1061086657610100808354040283529160200191610891565b820191906000526020600020905b81548152906001019060200180831161087457829003601f168201915b505050505090508051600014156108b85750506040805160208101909152600081526102b5565b600b816040516020016108cc929190611a1c565b6040516020818303038152906040529150506102b5565b6000806108ee610a44565b600d8054600101905590506109038482610a60565b61090d8184610a81565b5092915050565b600d5481565b6001600160a01b03918216600090815260046020908152604080832093909416825291909152205460ff1690565b6000908152600160205260409020546001600160a01b0316151590565b3390565b600061097482610948565b6109905760405162461bcd60e51b815260040161037890611b05565b600061099b83610588565b9050806001600160a01b0316846001600160a01b031614806109d65750836001600160a01b03166109cb84610351565b6001600160a01b0316145b806109e657506109e6818561091a565b949350505050565b6109f9838383610ac5565b610a038382610bcb565b6104c08282610cc0565b5490565b610a1c8484846109ee565b610a2884848484610cfe565b6107cf5760405162461bcd60e51b815260040161037890611ab5565b600d54600090610a5b90600163ffffffff610e3816565b905090565b610a6a8282610e64565b610a748282610cc0565b610a7d81610f2b565b5050565b610a8a82610948565b610aa65760405162461bcd60e51b815260040161037890611b65565b6000828152600c6020908152604090912082516104c092840190611073565b826001600160a01b0316610ad882610588565b6001600160a01b031614610afe5760405162461bcd60e51b815260040161037890611b75565b6001600160a01b038216610b245760405162461bcd60e51b815260040161037890611ae5565b610b2d81610f6f565b6001600160a01b0383166000908152600360205260409020610b4e90610fac565b6001600160a01b0382166000908152600360205260409020610b6f90610fc3565b60008181526001602052604080822080546001600160a01b0319166001600160a01b0386811691821790925591518493918716917fddf252ad1be2c89b69c2b068fc378daa952ba7f163c4a11628f55a4df523b3ef91a4505050565b6001600160a01b038216600090815260056020526040812054610bf590600163ffffffff610fcc16565b600083815260066020526040902054909150808214610c90576001600160a01b0384166000908152600560205260408120805484908110610c3257fe5b906000526020600020015490508060056000876001600160a01b03166001600160a01b031681526020019081526020016000208381548110610c7057fe5b600091825260208083209091019290925591825260069052604090208190555b6001600160a01b0384166000908152600560205260409020805490610cb99060001983016110f1565b5050505050565b6001600160a01b0390911660009081526005602081815260408084208054868652600684529185208290559282526001810183559183529091200155565b6000610d12846001600160a01b031661100e565b610d1e575060016109e6565b600060606001600160a01b038616630a85bd0160e11b610d3c610965565b898888604051602401610d529493929190611a42565b60408051601f198184030181529181526020820180516001600160e01b03166001600160e01b0319909416939093179092529051610d909190611a10565b6000604051808303816000865af19150503d8060008114610dcd576040519150601f19603f3d011682016040523d82523d6000602084013e610dd2565b606091505b509150915081610e0457805115610dec5780518082602001fd5b60405162461bcd60e51b815260040161037890611ab5565b600081806020019051610e1a919081019061139a565b6001600160e01b031916630a85bd0160e11b1493506109e692505050565b600082820183811015610e5d5760405162461bcd60e51b815260040161037890611ad5565b9392505050565b6001600160a01b038216610e8a5760405162461bcd60e51b815260040161037890611b45565b610e9381610948565b15610eb05760405162461bcd60e51b815260040161037890611ac5565b600081815260016020908152604080832080546001600160a01b0319166001600160a01b038716908117909155835260039091529020610eef90610fc3565b60405181906001600160a01b038416906000907fddf252ad1be2c89b69c2b068fc378daa952ba7f163c4a11628f55a4df523b3ef908290a45050565b600780546000838152600860205260408120829055600182018355919091527fa66cc928b5edb82af9bd49922954155ab7b0942694bea4ce44661d9a8736c6880155565b6000818152600260205260409020546001600160a01b031615610fa957600081815260026020526040902080546001600160a01b03191690555b50565b8054610fbf90600163ffffffff610fcc16565b9055565b80546001019055565b6000610e5d83836040518060400160405280601e81526020017f536166654d6174683a207375627472616374696f6e206f766572666c6f770000815250611047565b6000813f7fc5d2460186f7233c927e7db2dcc703c0e500b653ca82273b7bfad8045d85a4708181148015906109e6575050151592915050565b6000818484111561106b5760405162461bcd60e51b81526004016103789190611a94565b505050900390565b828054600181600116156101000203166002900490600052602060002090601f016020900481019282601f106110b457805160ff19168380011785556110e1565b828001600101855582156110e1579182015b828111156110e15782518255916020019190600101906110c6565b506110ed929150611111565b5090565b8154818355818111156104c0576000838152602090206104c09181019083015b61034e91905b808211156110ed5760008155600101611117565b803561052081611ca6565b803561052081611cba565b803561052081611cc3565b805161052081611cc3565b600082601f83011261116857600080fd5b813561117b61117682611bfa565b611bd3565b9150808252602083016020830185838301111561119757600080fd5b6111a2838284611c64565b50505092915050565b803561052081611ccc565b6000602082840312156111c857600080fd5b60006109e6848461112b565b600080604083850312156111e757600080fd5b60006111f3858561112b565b92505060206112048582860161112b565b9150509250929050565b60008060006060848603121561122357600080fd5b600061122f868661112b565b93505060206112408682870161112b565b9250506040611251868287016111ab565b9150509250925092565b6000806000806080858703121561127157600080fd5b600061127d878761112b565b945050602061128e8782880161112b565b935050604061129f878288016111ab565b925050606085013567ffffffffffffffff8111156112bc57600080fd5b6112c887828801611157565b91505092959194509250565b600080604083850312156112e757600080fd5b60006112f3858561112b565b925050602061120485828601611136565b6000806040838503121561131757600080fd5b6000611323858561112b565b925050602083013567ffffffffffffffff81111561134057600080fd5b61120485828601611157565b6000806040838503121561135f57600080fd5b600061136b858561112b565b9250506020611204858286016111ab565b60006020828403121561138e57600080fd5b60006109e68484611141565b6000602082840312156113ac57600080fd5b60006109e6848461114c565b6000602082840312156113ca57600080fd5b60006109e684846111ab565b6113df81611c3b565b82525050565b6113df81611c46565b60006113f982611c2e565b6114038185611c32565b9350611413818560208601611c70565b61141c81611c9c565b9093019392505050565b600061143182611c2e565b61143b81856102b5565b935061144b818560208601611c70565b9290920192915050565b6000815460018116600081146114725760018114611495576114d4565b607f600283041661148381876102b5565b60ff19841681529550850192506114d4565b600282046114a381876102b5565b95506114ae85611c22565b60005b828110156114cd578154888201526001909101906020016114b1565b5050850192505b505092915050565b60006114e9602b83611c32565b7f455243373231456e756d657261626c653a206f776e657220696e646578206f7581526a74206f6620626f756e647360a81b602082015260400192915050565b6000611536603283611c32565b7f4552433732313a207472616e7366657220746f206e6f6e20455243373231526581527131b2b4bb32b91034b6b83632b6b2b73a32b960711b602082015260400192915050565b600061158a601c83611c32565b7f4552433732313a20746f6b656e20616c7265616479206d696e74656400000000815260200192915050565b60006115c3601b83611c32565b7f536166654d6174683a206164646974696f6e206f766572666c6f770000000000815260200192915050565b60006115fc602483611c32565b7f4552433732313a207472616e7366657220746f20746865207a65726f206164648152637265737360e01b602082015260400192915050565b6000611642601983611c32565b7f4552433732313a20617070726f766520746f2063616c6c657200000000000000815260200192915050565b600061167b602c83611c32565b7f4552433732313a206f70657261746f7220717565727920666f72206e6f6e657881526b34b9ba32b73a103a37b5b2b760a11b602082015260400192915050565b60006116c9603883611c32565b7f4552433732313a20617070726f76652063616c6c6572206973206e6f74206f7781527f6e6572206e6f7220617070726f76656420666f7220616c6c0000000000000000602082015260400192915050565b6000611728602a83611c32565b7f4552433732313a2062616c616e636520717565727920666f7220746865207a65815269726f206164647265737360b01b602082015260400192915050565b6000611774602983611c32565b7f4552433732313a206f776e657220717565727920666f72206e6f6e657869737481526832b73a103a37b5b2b760b91b602082015260400192915050565b60006117bf602083611c32565b7f4552433732313a206d696e7420746f20746865207a65726f2061646472657373815260200192915050565b60006117f8602c83611c32565b7f4552433732313a20617070726f76656420717565727920666f72206e6f6e657881526b34b9ba32b73a103a37b5b2b760a11b602082015260400192915050565b6000611846602c83611c32565b7f4552433732314d657461646174613a2055524920736574206f66206e6f6e657881526b34b9ba32b73a103a37b5b2b760a11b602082015260400192915050565b6000611894602983611c32565b7f4552433732313a207472616e73666572206f6620746f6b656e2074686174206981526839903737ba1037bbb760b91b602082015260400192915050565b60006118df602f83611c32565b7f4552433732314d657461646174613a2055524920717565727920666f72206e6f81526e3732bc34b9ba32b73a103a37b5b2b760891b602082015260400192915050565b6000611930602183611c32565b7f4552433732313a20617070726f76616c20746f2063757272656e74206f776e658152603960f91b602082015260400192915050565b6000611973603183611c32565b7f4552433732313a207472616e736665722063616c6c6572206973206e6f74206f8152701ddb995c881b9bdc88185c1c1c9bdd9959607a1b602082015260400192915050565b60006119c6602c83611c32565b7f455243373231456e756d657261626c653a20676c6f62616c20696e646578206f81526b7574206f6620626f756e647360a01b602082015260400192915050565b6113df8161034e565b6000610e5d8284611426565b6000611a288285611455565b91506109e68284611426565b6020810161052082846113d6565b60808101611a5082876113d6565b611a5d60208301866113d6565b611a6a6040830185611a07565b8181036060830152611a7c81846113ee565b9695505050505050565b6020810161052082846113e5565b60208082528101610e5d81846113ee565b60208082528101610520816114dc565b6020808252810161052081611529565b602080825281016105208161157d565b60208082528101610520816115b6565b60208082528101610520816115ef565b6020808252810161052081611635565b602080825281016105208161166e565b60208082528101610520816116bc565b602080825281016105208161171b565b6020808252810161052081611767565b60208082528101610520816117b2565b60208082528101610520816117eb565b6020808252810161052081611839565b6020808252810161052081611887565b60208082528101610520816118d2565b6020808252810161052081611923565b6020808252810161052081611966565b60208082528101610520816119b9565b602081016105208284611a07565b60405181810167ffffffffffffffff81118282101715611bf257600080fd5b604052919050565b600067ffffffffffffffff821115611c1157600080fd5b506020601f91909101601f19160190565b60009081526020902090565b5190565b90815260200190565b600061052082611c58565b151590565b6001600160e01b03191690565b6001600160a01b031690565b82818337506000910152565b60005b83811015611c8b578181015183820152602001611c73565b838111156107cf5750506000910152565b601f01601f191690565b611caf81611c3b565b8114610fa957600080fd5b611caf81611c46565b611caf81611c4b565b611caf8161034e56fea365627a7a72315820bdd8d25fef9e6b12605bb93c4f9a85e29c9531256fe0f903e7a447c9f41ee2cc6c6578706572696d656e74616cf564736f6c63430005100040",
  "source": "pragma solidity ^0.5.3;\npragma experimental ABIEncoderV2;\nimport { ERC721Full } from \"@openzeppelin/contracts/token/ERC721/ERC721Full.sol\";\nimport { SafeMath } from \"@openzeppelin/contracts/math/SafeMath.sol\";\n\n\n/**\n * @notice - This is the NFT contract for a prnt\n */\ncontract PrntNFT is ERC721Full {\n    using SafeMath for uint256;\n\n    uint256 public currentPrntId;\n    \n    constructor(\n        address owner,  /// Initial owner (Seller)\n        string memory _nftName, \n        string memory _nftSymbol,\n        string memory _tokenURI,    /// [Note]: TokenURI is URL include ipfs hash\n        uint prntPrice\n    ) \n        public \n        ERC721Full(_nftName, _nftSymbol) \n    {\n        mint(owner, _tokenURI);\n    }\n\n    /** \n     * @dev mint a prntNFT\n     * @dev tokenURI - URL include ipfs hash\n     */\n    function mint(address to, string memory tokenURI) public returns (bool) {\n        /// Mint a new PrntNFT\n        uint newPrntId = getNextPrntId();\n        currentPrntId++;\n        _mint(to, newPrntId);\n        _setTokenURI(newPrntId, tokenURI);\n    }\n\n\n    ///--------------------------------------\n    /// Getter methods\n    ///--------------------------------------\n\n\n    ///--------------------------------------\n    /// Private methods\n    ///--------------------------------------\n    function getNextPrntId() private returns (uint nextPrntId) {\n        return currentPrntId.add(1);\n    }\n    \n\n}\n",
  "sourcePath": "C:\\Users\\NEWMONEY\\Desktop\\PrntPlace-main\\contracts\\PrntNFT.sol",
  "compiler": {
    "name": "solc",
    "version": "0.5.16+commit.9c3226ce.Emscripten.clang"
  },
  "schemaVersion": "3.3.4",
  "updatedAt": "2021-03-20T03:42:33.842Z",
  "devdoc": {
    "methods": {
      "approve(address,uint256)": {
        "details": "Approves another address to transfer the given token ID The zero address indicates there is no approved address. There can only be one approved address per token at a given time. Can only be called by the token owner or an approved operator.",
        "params": {
          "to": "address to be approved for the given token ID",
          "tokenId": "uint256 ID of the token to be approved"
        }
      },
      "balanceOf(address)": {
        "details": "Gets the balance of the specified address.",
        "params": {
          "owner": "address to query the balance of"
        },
        "return": "uint256 representing the amount owned by the passed address"
      },
      "baseURI()": {
        "details": "Returns the base URI set via {_setBaseURI}. This will be automatically added as a preffix in {tokenURI} to each token's URI, when they are non-empty.    * _Available since v2.5.0._"
      },
      "getApproved(uint256)": {
        "details": "Gets the approved address for a token ID, or zero if no address set Reverts if the token ID does not exist.",
        "params": {
          "tokenId": "uint256 ID of the token to query the approval of"
        },
        "return": "address currently approved for the given token ID"
      },
      "isApprovedForAll(address,address)": {
        "details": "Tells whether an operator is approved by a given owner.",
        "params": {
          "operator": "operator address which you want to query the approval of",
          "owner": "owner address which you want to query the approval of"
        },
        "return": "bool whether the given operator is approved by the given owner"
      },
      "mint(address,string)": {
        "details": "mint a prntNFTtokenURI - URL include ipfs hash"
      },
      "name()": {
        "details": "Gets the token name.",
        "return": "string representing the token name"
      },
      "ownerOf(uint256)": {
        "details": "Gets the owner of the specified token ID.",
        "params": {
          "tokenId": "uint256 ID of the token to query the owner of"
        },
        "return": "address currently marked as the owner of the given token ID"
      },
      "safeTransferFrom(address,address,uint256)": {
        "details": "Safely transfers the ownership of a given token ID to another address If the target address is a contract, it must implement {IERC721Receiver-onERC721Received}, which is called upon a safe transfer, and return the magic value `bytes4(keccak256(\"onERC721Received(address,address,uint256,bytes)\"))`; otherwise, the transfer is reverted. Requires the msg.sender to be the owner, approved, or operator",
        "params": {
          "from": "current owner of the token",
          "to": "address to receive the ownership of the given token ID",
          "tokenId": "uint256 ID of the token to be transferred"
        }
      },
      "safeTransferFrom(address,address,uint256,bytes)": {
        "details": "Safely transfers the ownership of a given token ID to another address If the target address is a contract, it must implement {IERC721Receiver-onERC721Received}, which is called upon a safe transfer, and return the magic value `bytes4(keccak256(\"onERC721Received(address,address,uint256,bytes)\"))`; otherwise, the transfer is reverted. Requires the _msgSender() to be the owner, approved, or operator",
        "params": {
          "_data": "bytes data to send along with a safe transfer check",
          "from": "current owner of the token",
          "to": "address to receive the ownership of the given token ID",
          "tokenId": "uint256 ID of the token to be transferred"
        }
      },
      "setApprovalForAll(address,bool)": {
        "details": "Sets or unsets the approval of a given operator An operator is allowed to transfer all tokens of the sender on their behalf.",
        "params": {
          "approved": "representing the status of the approval to be set",
          "to": "operator address to set the approval"
        }
      },
      "supportsInterface(bytes4)": {
        "details": "See {IERC165-supportsInterface}.     * Time complexity O(1), guaranteed to always use less than 30 000 gas."
      },
      "symbol()": {
        "details": "Gets the token symbol.",
        "return": "string representing the token symbol"
      },
      "tokenByIndex(uint256)": {
        "details": "Gets the token ID at a given index of all the tokens in this contract Reverts if the index is greater or equal to the total number of tokens.",
        "params": {
          "index": "uint256 representing the index to be accessed of the tokens list"
        },
        "return": "uint256 token ID at the given index of the tokens list"
      },
      "tokenOfOwnerByIndex(address,uint256)": {
        "details": "Gets the token ID at a given index of the tokens list of the requested owner.",
        "params": {
          "index": "uint256 representing the index to be accessed of the requested tokens list",
          "owner": "address owning the tokens list to be accessed"
        },
        "return": "uint256 token ID at the given index of the tokens list owned by the requested address"
      },
      "tokenURI(uint256)": {
        "details": "Returns the URI for a given token ID. May return an empty string.     * If the token's URI is non-empty and a base URI was set (via {_setBaseURI}), it will be added to the token ID's URI as a prefix.     * Reverts if the token ID does not exist."
      },
      "totalSupply()": {
        "details": "Gets the total amount of tokens stored by the contract.",
        "return": "uint256 representing the total amount of tokens"
      },
      "transferFrom(address,address,uint256)": {
        "details": "Transfers the ownership of a given token ID to another address. Usage of this method is discouraged, use {safeTransferFrom} whenever possible. Requires the msg.sender to be the owner, approved, or operator.",
        "params": {
          "from": "current owner of the token",
          "to": "address to receive the ownership of the given token ID",
          "tokenId": "uint256 ID of the token to be transferred"
        }
      }
    }
  },
  "userdoc": {
    "methods": {},
    "notice": "- This is the NFT contract for a prnt"
  }
}