{
  "contractName": "PrntNFTMarketplace",
  "abi": [
    {
      "inputs": [
        {
          "internalType": "contract PrntNFTData",
          "name": "_prntNFTData",
          "type": "address"
        }
      ],
      "payable": false,
      "stateMutability": "nonpayable",
      "type": "constructor"
    },
    {
      "anonymous": false,
      "inputs": [
        {
          "indexed": false,
          "internalType": "contract PrntNFT",
          "name": "prntNFT",
          "type": "address"
        },
        {
          "indexed": false,
          "internalType": "uint256",
          "name": "prntId",
          "type": "uint256"
        },
        {
          "indexed": false,
          "internalType": "address",
          "name": "ownerBeforeOwnershipTransferred",
          "type": "address"
        },
        {
          "indexed": false,
          "internalType": "address",
          "name": "ownerAfterOwnershipTransferred",
          "type": "address"
        }
      ],
      "name": "PrntNFTOwnershipChanged",
      "type": "event"
    },
    {
      "anonymous": false,
      "inputs": [
        {
          "indexed": false,
          "internalType": "uint256",
          "name": "ad",
          "type": "uint256"
        },
        {
          "indexed": false,
          "internalType": "bytes32",
          "name": "status",
          "type": "bytes32"
        }
      ],
      "name": "TradeStatusChange",
      "type": "event"
    },
    {
      "constant": true,
      "inputs": [],
      "name": "PRNT_NFT_MARKETPLACE",
      "outputs": [
        {
          "internalType": "address",
          "name": "",
          "type": "address"
        }
      ],
      "payable": false,
      "stateMutability": "view",
      "type": "function"
    },
    {
      "constant": false,
      "inputs": [
        {
          "internalType": "contract PrntNFT",
          "name": "prntNFT",
          "type": "address"
        },
        {
          "internalType": "uint256",
          "name": "_prntId",
          "type": "uint256"
        }
      ],
      "name": "cancelTrade",
      "outputs": [],
      "payable": false,
      "stateMutability": "nonpayable",
      "type": "function"
    },
    {
      "constant": true,
      "inputs": [
        {
          "internalType": "uint256",
          "name": "_prntId",
          "type": "uint256"
        }
      ],
      "name": "getTrade",
      "outputs": [
        {
          "components": [
            {
              "internalType": "address",
              "name": "seller",
              "type": "address"
            },
            {
              "internalType": "uint256",
              "name": "prntId",
              "type": "uint256"
            },
            {
              "internalType": "uint256",
              "name": "prntPrice",
              "type": "uint256"
            },
            {
              "internalType": "bytes32",
              "name": "status",
              "type": "bytes32"
            }
          ],
          "internalType": "struct PrntNFTTradable.Trade",
          "name": "trade_",
          "type": "tuple"
        }
      ],
      "payable": false,
      "stateMutability": "view",
      "type": "function"
    },
    {
      "constant": false,
      "inputs": [
        {
          "internalType": "contract PrntNFT",
          "name": "prntNFT",
          "type": "address"
        },
        {
          "internalType": "uint256",
          "name": "_prntId",
          "type": "uint256"
        }
      ],
      "name": "openTrade",
      "outputs": [],
      "payable": false,
      "stateMutability": "nonpayable",
      "type": "function"
    },
    {
      "constant": false,
      "inputs": [
        {
          "internalType": "contract PrntNFT",
          "name": "prntNFT",
          "type": "address"
        },
        {
          "internalType": "uint256",
          "name": "_prntId",
          "type": "uint256"
        },
        {
          "internalType": "uint256",
          "name": "_prntPrice",
          "type": "uint256"
        }
      ],
      "name": "openTradeWhenCreateNewPrntNFT",
      "outputs": [],
      "payable": false,
      "stateMutability": "nonpayable",
      "type": "function"
    },
    {
      "constant": true,
      "inputs": [],
      "name": "prntNFT",
      "outputs": [
        {
          "internalType": "contract PrntNFT",
          "name": "",
          "type": "address"
        }
      ],
      "payable": false,
      "stateMutability": "view",
      "type": "function"
    },
    {
      "constant": true,
      "inputs": [],
      "name": "prntNFTData",
      "outputs": [
        {
          "internalType": "contract PrntNFTData",
          "name": "",
          "type": "address"
        }
      ],
      "payable": false,
      "stateMutability": "view",
      "type": "function"
    },
    {
      "constant": true,
      "inputs": [
        {
          "internalType": "uint256",
          "name": "",
          "type": "uint256"
        }
      ],
      "name": "trades",
      "outputs": [
        {
          "internalType": "address",
          "name": "seller",
          "type": "address"
        },
        {
          "internalType": "uint256",
          "name": "prntId",
          "type": "uint256"
        },
        {
          "internalType": "uint256",
          "name": "prntPrice",
          "type": "uint256"
        },
        {
          "internalType": "bytes32",
          "name": "status",
          "type": "bytes32"
        }
      ],
      "payable": false,
      "stateMutability": "view",
      "type": "function"
    },
    {
      "constant": false,
      "inputs": [
        {
          "internalType": "contract PrntNFT",
          "name": "_prntNFT",
          "type": "address"
        },
        {
          "internalType": "uint256",
          "name": "_prntId",
          "type": "uint256"
        },
        {
          "internalType": "address",
          "name": "_buyer",
          "type": "address"
        }
      ],
      "name": "transferOwnershipOfPrntNFT",
      "outputs": [],
      "payable": false,
      "stateMutability": "nonpayable",
      "type": "function"
    },
    {
      "constant": false,
      "inputs": [
        {
          "internalType": "contract PrntNFT",
          "name": "_prntNFT",
          "type": "address"
        }
      ],
      "name": "buyPrntNFT",
      "outputs": [
        {
          "internalType": "bool",
          "name": "",
          "type": "bool"
        }
      ],
      "payable": true,
      "stateMutability": "payable",
      "type": "function"
    },
    {
      "constant": false,
      "inputs": [
        {
          "internalType": "address",
          "name": "from",
          "type": "address"
        },
        {
          "internalType": "address",
          "name": "to",
          "type": "address"
        },
        {
          "internalType": "uint256",
          "name": "prntId",
          "type": "uint256"
        }
      ],
      "name": "reputation",
      "outputs": [
        {
          "internalType": "uint256",
          "name": "",
          "type": "uint256"
        },
        {
          "internalType": "uint256",
          "name": "",
          "type": "uint256"
        }
      ],
      "payable": false,
      "stateMutability": "nonpayable",
      "type": "function"
    },
    {
      "constant": true,
      "inputs": [
        {
          "internalType": "uint256",
          "name": "prntId",
          "type": "uint256"
        }
      ],
      "name": "getReputationCount",
      "outputs": [
        {
          "internalType": "uint256",
          "name": "",
          "type": "uint256"
        }
      ],
      "payable": false,
      "stateMutability": "view",
      "type": "function"
    }
  ],
  "bytecode": "0x60806040523480156200001157600080fd5b50604051620016243803806200162483398101604081905262000034916200007c565b600180546001600160a01b039092166001600160a01b03199283168117909155600060035560058054909216179055620000e5565b80516200007681620000cb565b92915050565b6000602082840312156200008f57600080fd5b60006200009d848462000069565b949350505050565b60006200007682620000bf565b60006200007682620000a5565b6001600160a01b031690565b620000d681620000b2565b8114620000e257600080fd5b50565b61152f80620000f56000396000f3fe6080604052600436106100a75760003560e01c80637cc0c9bd116100645780637cc0c9bd1461019657806380a279c4146101c3578063996f6068146101e35780639a59ba9b146101f8578063a2793daf14610218578063a8ddeb3314610246576100a7565b806309c5ffdc146100ac5780631e6c598e146100d55780632db25e05146101055780633b455a93146101325780635776ffe114610154578063759c4bf314610176575b600080fd5b6100bf6100ba366004610eeb565b610268565b6040516100cc9190611299565b60405180910390f35b3480156100e157600080fd5b506100f56100f0366004610fed565b61062b565b6040516100cc949392919061125b565b34801561011157600080fd5b50610125610120366004610fed565b61065e565b6040516100cc9190611383565b34801561013e57600080fd5b506101476106ba565b6040516100cc91906112a7565b34801561016057600080fd5b5061017461016f366004610f86565b6106c9565b005b34801561018257600080fd5b50610174610191366004610f09565b6107d9565b3480156101a257600080fd5b506101b66101b1366004610fed565b610966565b6040516100cc9190611391565b3480156101cf57600080fd5b506101746101de366004610f09565b61096c565b3480156101ef57600080fd5b50610147610ac6565b34801561020457600080fd5b50610174610213366004610f43565b610ad5565b34801561022457600080fd5b50610238610233366004610e80565b610bcb565b6040516100cc9291906113d3565b34801561025257600080fd5b5061025b610bd6565b6040516100cc91906111f5565b600081610273610c14565b6005546040516313184f3360e31b81526001600160a01b03909116906398c27998906102a39085906004016112a7565b60006040518083038186803b1580156102bb57600080fd5b505afa1580156102cf573d6000803e3d6000fd5b505050506040513d6000823e601f3d908101601f191682016040526102f79190810190610fb8565b6060810151608082015191925090819034811461032f5760405162461bcd60e51b815260040161032690611373565b60405180910390fd5b6040516001600160a01b0383169082156108fc029083906000818181858888f19350505050158015610365573d6000803e3d6000fd5b5060405163095ea7b360e01b815233906001906001600160a01b0388169063095ea7b3906103999085908590600401611239565b600060405180830381600087803b1580156103b357600080fd5b505af11580156103c7573d6000803e3d6000fd5b50506040516331a9108f60e11b8152600092506001600160a01b038a169150636352211e906103fa908590600401611391565b60206040518083038186803b15801561041257600080fd5b505afa158015610426573d6000803e3d6000fd5b505050506040513d601f19601f8201168201806040525061044a9190810190610e5a565b9050610457888385610ad5565b60055460405163e4743ecd60e01b81526001600160a01b039091169063e4743ecd90610489908b9087906004016112b5565b602060405180830381600087803b1580156104a357600080fd5b505af11580156104b7573d6000803e3d6000fd5b505050506040513d601f19601f820116820180604052506104db9190810190610ecd565b50600554604051634dd5bfa560e11b81526001600160a01b0390911690639bab7f4a9061050c908b906004016112d0565b602060405180830381600087803b15801561052657600080fd5b505af115801561053a573d6000803e3d6000fd5b505050506040513d601f19601f8201168201806040525061055e9190810190610ecd565b506040516331a9108f60e11b81526000906001600160a01b038a1690636352211e9061058e908690600401611391565b60206040518083038186803b1580156105a657600080fd5b505afa1580156105ba573d6000803e3d6000fd5b505050506040513d601f19601f820116820180604052506105de9190810190610e5a565b90507fbf5a309ffa40b9f297d9443d272a7f58059967521dac1b48001138d5e905832e89848484604051610615949392919061130e565b60405180910390a1505050505050505050919050565b600260208190526000918252604090912080546001820154928201546003909201546001600160a01b0390911692919084565b610666610c6b565b61066e610c6b565b5050600090815260026020818152604092839020835160808101855281546001600160a01b03168152600182015492810192909252918201549281019290925260030154606082015290565b6005546001600160a01b031681565b6040516323b872dd60e01b81526001600160a01b038416906323b872dd906106f990339030908790600401611203565b600060405180830381600087803b15801561071357600080fd5b505af1158015610727573d6000803e3d6000fd5b50506003805460019081018083556040805160808101825233815260208082018a81528284018a81526327b832b760e11b60608501908152600096875260029384905295859020935184546001600160a01b0319166001600160a01b03909116178455905195830195909555935193810193909355905191830191909155905490516000805160206114cd83398151915293506107cc925060001991909101906113b9565b60405180910390a1505050565b600154604051634dd5bfa560e11b81526001600160a01b0390911690639bab7f4a906108099085906004016112d0565b602060405180830381600087803b15801561082357600080fd5b505af1158015610837573d6000803e3d6000fd5b505050506040513d601f19601f8201168201806040525061085b9190810190610ecd565b50600081815260026020526040902080546001600160a01b031633146108935760405162461bcd60e51b815260040161032690611343565b80600301546327b832b760e11b146108bd5760405162461bcd60e51b815260040161032690611363565b805460018201546040516323b872dd60e01b81526001600160a01b03868116936323b872dd936108f59330939092169160040161122b565b600060405180830381600087803b15801561090f57600080fd5b505af1158015610923573d6000803e3d6000fd5b505050600083815260026020526040908190206810d85b98d95b1b195960ba1b600390910155516000805160206114cd83398151915291506107cc90849061139f565b50600090565b600154604051634dd5bfa560e11b81526001600160a01b0390911690639bab7f4a9061099c9085906004016112ef565b602060405180830381600087803b1580156109b657600080fd5b505af11580156109ca573d6000803e3d6000fd5b505050506040513d601f19601f820116820180604052506109ee9190810190610ecd565b50600081815260026020526040902080546001600160a01b03163314610a265760405162461bcd60e51b815260040161032690611353565b60018101546040516323b872dd60e01b81526001600160a01b038516916323b872dd91610a5a913391309190600401611203565b600060405180830381600087803b158015610a7457600080fd5b505af1158015610a88573d6000803e3d6000fd5b505050600083815260026020526040908190206327b832b760e11b600390910155516000805160206114cd83398151915291506107cc9084906113b9565b6000546001600160a01b031681565b82610ade610c6b565b610ae78461065e565b905080606001516327b832b760e11b14610b135760405162461bcd60e51b815260040161032690611363565b610b1e858585610be5565b60208101516040516323b872dd60e01b81526001600160a01b038416916323b872dd91610b5291309188919060040161122b565b600060405180830381600087803b158015610b6c57600080fd5b505af1158015610b80573d6000803e3d6000fd5b505050506810d85b98d95b1b195960ba1b610b9a8561065e565b606001526040516000805160206114cd83398151915290610bbc90869061139f565b60405180910390a15050505050565b600080935093915050565b6004546001600160a01b031681565b60009182526002602052604090912080546001600160a01b0319166001600160a01b0390921691909117905550565b60405180610100016040528060006001600160a01b03168152602001606081526020016060815260200160006001600160a01b03168152602001600081526020016060815260200160608152602001600081525090565b60408051608081018252600080825260208201819052918101829052606081019190915290565b8035610c9d8161149a565b92915050565b8051610c9d8161149a565b8051610c9d816114b1565b8035610c9d816114ba565b8051610c9d816114ba565b600082601f830112610ce057600080fd5b8151610cf3610cee82611408565b6113e1565b91508082526020830160208301858383011115610d0f57600080fd5b610d1a83828461146e565b50505092915050565b60006101008284031215610d3657600080fd5b610d416101006113e1565b90506000610d4f8484610cc4565b825250602082015167ffffffffffffffff811115610d6c57600080fd5b610d7884828501610ccf565b602083015250604082015167ffffffffffffffff811115610d9857600080fd5b610da484828501610ccf565b6040830152506060610db884828501610ca3565b6060830152506080610dcc84828501610e4f565b60808301525060a082015167ffffffffffffffff811115610dec57600080fd5b610df884828501610ccf565b60a08301525060c082015167ffffffffffffffff811115610e1857600080fd5b610e2484828501610ccf565b60c08301525060e0610e3884828501610e4f565b60e08301525092915050565b8035610c9d816114c3565b8051610c9d816114c3565b600060208284031215610e6c57600080fd5b6000610e788484610ca3565b949350505050565b600080600060608486031215610e9557600080fd5b6000610ea18686610c92565b9350506020610eb286828701610c92565b9250506040610ec386828701610e44565b9150509250925092565b600060208284031215610edf57600080fd5b6000610e788484610cae565b600060208284031215610efd57600080fd5b6000610e788484610cb9565b60008060408385031215610f1c57600080fd5b6000610f288585610cb9565b9250506020610f3985828601610e44565b9150509250929050565b600080600060608486031215610f5857600080fd5b6000610f648686610cb9565b9350506020610f7586828701610e44565b9250506040610ec386828701610c92565b600080600060608486031215610f9b57600080fd5b6000610fa78686610cb9565b9350506020610eb286828701610e44565b600060208284031215610fca57600080fd5b815167ffffffffffffffff811115610fe157600080fd5b610e7884828501610d23565b600060208284031215610fff57600080fd5b6000610e788484610e44565b61101481611463565b82525050565b61101481611439565b61101481611444565b61101481611449565b6110148161144c565b600061104b602683611430565b7f54726164652063616e2062652063616e63656c6c6564206f6e6c79206279207381526532b63632b91760d11b602082015260400192915050565b6000611093602183611430565b7f54726164652063616e206265206f70656e206f6e6c792062792073656c6c65728152601760f91b602082015260400192915050565b60006110d6601283611430565b712a3930b2329034b9903737ba1027b832b71760711b815260200192915050565b6810d85b98d95b1b195960ba1b9052565b6000611115600983611430565b6810d85b98d95b1b195960ba1b815260200192915050565b6327b832b760e11b9052565b6000611146600483611430565b6327b832b760e11b815260200192915050565b6000611166602a83611430565b7f6d73672e76616c75652073686f756c6420626520657175616c20746f2074686581526908189d5e505b5bdd5b9d60b21b602082015260400192915050565b805160808301906111b6848261101a565b5060208201516111c9602085018261102c565b5060408201516111dc604085018261102c565b5060608201516111ef606085018261102c565b50505050565b60208101610c9d828461101a565b60608101611211828661100b565b61121e602083018561101a565b610e78604083018461102c565b60608101611211828661101a565b60408101611247828561101a565b611254602083018461102c565b9392505050565b60808101611269828761101a565b611276602083018661102c565b611283604083018561102c565b611290606083018461102c565b95945050505050565b60208101610c9d8284611023565b60208101610c9d8284611035565b604081016112c38285611035565b611254602083018461101a565b604081016112de8284611035565b818103602083015261125481611108565b604081016112fd8284611035565b818103602083015261125481611139565b6080810161131c8287611035565b611329602083018661102c565b611336604083018561101a565b611290606083018461101a565b60208082528101610c9d8161103e565b60208082528101610c9d81611086565b60208082528101610c9d816110c9565b60208082528101610c9d81611159565b60808101610c9d82846111a5565b60208101610c9d828461102c565b604081016113ad828461102c565b610c9d602083016110f7565b604081016113c7828461102c565b610c9d6020830161112d565b60408101611247828561102c565b60405181810167ffffffffffffffff8111828210171561140057600080fd5b604052919050565b600067ffffffffffffffff82111561141f57600080fd5b506020601f91909101601f19160190565b90815260200190565b6000610c9d82611457565b151590565b90565b6000610c9d82611439565b6001600160a01b031690565b6000610c9d8261144c565b60005b83811015611489578181015183820152602001611471565b838111156111ef5750506000910152565b6114a381611439565b81146114ae57600080fd5b50565b6114a381611444565b6114a38161144c565b6114a38161144956fe4d38ed2c5ea671a5ccddc331f0ebebd94a60aaf6e572543497485d4d148f9edfa365627a7a723158205eff36207b73213d248adf5aaf78a9ae6937ab9f7718d521311fddc18420cc5d6c6578706572696d656e74616cf564736f6c63430005100040",
  "source": "pragma solidity ^0.5.3;\r\npragma experimental ABIEncoderV2;\r\n//import { ERC20 } from '@openzeppelin/contracts/token/ERC20/ERC20.sol';\r\nimport { SafeMath } from \"@openzeppelin/contracts/math/SafeMath.sol\";\r\nimport { PrntNFT } from \"./PrntNFT.sol\";\r\nimport { PrntNFTTradable } from \"./PrntNFTTradable.sol\";\r\nimport { PrntNFTMarketplaceEvents } from \"./prnt-nft-marketplace/commons/PrntNFTMarketplaceEvents.sol\";\r\nimport { PrntNFTData } from \"./PrntNFTData.sol\";\r\n\r\n\r\ncontract PrntNFTMarketplace is PrntNFTTradable, PrntNFTMarketplaceEvents {\r\n    using SafeMath for uint256;\r\n\r\n    address public PRNT_NFT_MARKETPLACE;\r\n\r\n    PrntNFTData public prntNFTData;\r\n\r\n    constructor(PrntNFTData _prntNFTData) public PrntNFTTradable(_prntNFTData) {\r\n        prntNFTData = _prntNFTData;\r\n        address payable PRNT_NFT_MARKETPLACE = address(uint160(address(this)));\r\n    }\r\n\r\n    /** \r\n     * @notice - Buy function is that buy NFT token and ownership transfer. (Reference from IERC721.sol)\r\n     * @notice - msg.sender buy NFT with ETH (msg.value)\r\n     * @notice - PrntID is always 1. Because each prntNFT is unique.\r\n     */\r\n    function buyPrntNFT(PrntNFT _prntNFT) public payable returns (bool) {\r\n        PrntNFT prntNFT = _prntNFT;\r\n\r\n        PrntNFTData.Prnt memory prnt = prntNFTData.getPrntByNFTAddress(prntNFT);\r\n        address _seller = prnt.ownerAddress;                     /// Owner\r\n        address payable seller = address(uint160(_seller));  /// Convert owner address with payable\r\n        uint buyAmount = prnt.prntPrice;\r\n        require (msg.value == buyAmount, \"msg.value should be equal to the buyAmount\");\r\n \r\n        /// Bought-amount is transferred into a seller wallet\r\n        seller.transfer(buyAmount);\r\n\r\n        /// Approve a buyer address as a receiver before NFT's transferFrom method is executed\r\n        address buyer = msg.sender;\r\n        uint prntId = 1;  /// [Note]: PrntID is always 1. Because each prntNFT is unique.\r\n        prntNFT.approve(buyer, prntId);\r\n\r\n        address ownerBeforeOwnershipTransferred = prntNFT.ownerOf(prntId);\r\n\r\n        /// Transfer Ownership of the PrntNFT from a seller to a buyer\r\n        transferOwnershipOfPrntNFT(prntNFT, prntId, buyer);    \r\n        prntNFTData.updateOwnerOfPrntNFT(prntNFT, buyer);\r\n        prntNFTData.updateStatus(prntNFT, \"Cancelled\");\r\n\r\n        /// Event for checking result of transferring ownership of a prntNFT\r\n        address ownerAfterOwnershipTransferred = prntNFT.ownerOf(prntId);\r\n        emit PrntNFTOwnershipChanged(prntNFT, prntId, ownerBeforeOwnershipTransferred, ownerAfterOwnershipTransferred);\r\n\r\n        /// Mint a prnt with a new prntId\r\n        //string memory tokenURI = prntNFTFactory.getTokenURI(prntData.ipfsHashOfPrnt);  /// [Note]: IPFS hash + URL\r\n        //prntNFT.mint(msg.sender, tokenURI);\r\n    }\r\n\r\n\r\n    ///-----------------------------------------------------\r\n    /// Methods below are pending methods\r\n    ///-----------------------------------------------------\r\n\r\n    /** \r\n     * @dev reputation function is that gives reputation to a user who has ownership of being posted prnt.\r\n     * @dev Each user has reputation data in struct\r\n     */\r\n    function reputation(address from, address to, uint256 prntId) public returns (uint256, uint256) {\r\n\r\n        // Prnt storage prnt = prnts[prntId];\r\n        // prnt.reputation = prnt.reputation.add(1);\r\n\r\n        // emit AddReputation(prntId, prnt.reputation);\r\n\r\n        // return (prntId, prnt.reputation);\r\n        return (0, 0);\r\n    }\r\n    \r\n\r\n    function getReputationCount(uint256 prntId) public view returns (uint256) {\r\n        uint256 curretReputationCount;\r\n\r\n        // Prnt memory prnt = prnts[prntId];\r\n        // curretReputationCount = prnt.reputation;\r\n\r\n        return curretReputationCount;\r\n    }    \r\n\r\n}\r\n",
  "sourcePath": "E:/Blockchain/PrntPlace-main/contracts/PrntNFTMarketPlace.sol",
  "compiler": {
    "name": "solc",
    "version": "0.5.16+commit.9c3226ce.Emscripten.clang"
  },
  "schemaVersion": "3.3.4",
  "updatedAt": "2021-04-01T15:19:39.640Z",
  "networkType": "ethereum",
  "devdoc": {
    "methods": {
      "cancelTrade(address,uint256)": {
        "details": "Cancels a trade by the seller."
      },
      "getTrade(uint256)": {
        "details": "- Returns the details for a trade."
      },
      "openTrade(address,uint256)": {
        "details": "Opens a trade by the seller."
      },
      "openTradeWhenCreateNewPrntNFT(address,uint256,uint256)": {
        "details": "Opens a new trade. Puts _prntId in escrow.",
        "params": {
          "_prntId": "The id for the prntId to trade.",
          "_prntPrice": "The amount of currency for which to trade the prntId."
        }
      },
      "reputation(address,address,uint256)": {
        "details": "reputation function is that gives reputation to a user who has ownership of being posted prnt.Each user has reputation data in struct"
      },
      "transferOwnershipOfPrntNFT(address,uint256,address)": {
        "details": "Executes a trade. Must have approved this contract to transfer the amount of currency specified to the seller. Transfers ownership of the prntId to the filler."
      }
    }
  },
  "userdoc": {
    "methods": {
      "buyPrntNFT(address)": {
        "notice": "- Buy function is that buy NFT token and ownership transfer. (Reference from IERC721.sol)- msg.sender buy NFT with ETH (msg.value)- PrntID is always 1. Because each prntNFT is unique."
      },
      "openTradeWhenCreateNewPrntNFT(address,uint256,uint256)": {
        "notice": "- This method is only executed when a seller create a new PrntNFT"
      }
    }
  }
}