{
  "contractName": "PrntNFTDataStorages",
  "abi": [
    {
      "constant": true,
      "inputs": [
        {
          "internalType": "uint256",
          "name": "",
          "type": "uint256"
        }
      ],
      "name": "prnts",
      "outputs": [
        {
          "internalType": "contract PrntNFT",
          "name": "prntNFT",
          "type": "address"
        },
        {
          "internalType": "string",
          "name": "prntNFTName",
          "type": "string"
        },
        {
          "internalType": "string",
          "name": "prntNFTSymbol",
          "type": "string"
        },
        {
          "internalType": "address",
          "name": "ownerAddress",
          "type": "address"
        },
        {
          "internalType": "uint256",
          "name": "prntPrice",
          "type": "uint256"
        },
        {
          "internalType": "string",
          "name": "ipfsHashOfPrnt",
          "type": "string"
        },
        {
          "internalType": "string",
          "name": "status",
          "type": "string"
        },
        {
          "internalType": "uint256",
          "name": "reputation",
          "type": "uint256"
        }
      ],
      "payable": false,
      "stateMutability": "view",
      "type": "function"
    }
  ],
  "bytecode": "0x608060405234801561001057600080fd5b506104d5806100206000396000f3fe608060405234801561001057600080fd5b506004361061002b5760003560e01c806327052ccd14610030575b600080fd5b61004361003e366004610303565b610060565b604051610057989796959493929190610382565b60405180910390f35b6000818154811061006d57fe5b600091825260209182902060089091020180546001808301805460408051601f60026000199685161561010002969096019093169490940491820187900487028401870190528083526001600160a01b03909316955092939092919083018282801561011a5780601f106100ef5761010080835404028352916020019161011a565b820191906000526020600020905b8154815290600101906020018083116100fd57829003601f168201915b50505060028085018054604080516020601f60001961010060018716150201909416959095049283018590048502810185019091528181529596959450909250908301828280156101ac5780601f10610181576101008083540402835291602001916101ac565b820191906000526020600020905b81548152906001019060200180831161018f57829003601f168201915b505050506003830154600484015460058501805460408051602060026101006001861615026000190190941693909304601f810184900484028201840190925281815296976001600160a01b0390951696939550908301828280156102525780601f1061022757610100808354040283529160200191610252565b820191906000526020600020905b81548152906001019060200180831161023557829003601f168201915b5050505060068301805460408051602060026001851615610100026000190190941693909304601f81018490048402820184019092528181529495949350908301828280156102e25780601f106102b7576101008083540402835291602001916102e2565b820191906000526020600020905b8154815290600101906020018083116102c557829003601f168201915b5050505050908060070154905088565b80356102fd8161047b565b92915050565b60006020828403121561031557600080fd5b600061032184846102f2565b949350505050565b61033281610422565b82525050565b61033281610436565b600061034c82610415565b6103568185610419565b9350610366818560208601610441565b61036f81610471565b9093019392505050565b61033281610433565b6101008101610391828b610338565b81810360208301526103a3818a610341565b905081810360408301526103b78189610341565b90506103c66060830188610329565b6103d36080830187610379565b81810360a08301526103e58186610341565b905081810360c08301526103f98185610341565b905061040860e0830184610379565b9998505050505050505050565b5190565b90815260200190565b60006001600160a01b0382166102fd565b90565b60006102fd82610422565b60005b8381101561045c578181015183820152602001610444565b8381111561046b576000848401525b50505050565b601f01601f191690565b61048481610433565b811461048f57600080fd5b5056fea365627a7a7231582016c331d267549c64d76bcba0c7fcf99edaabe5221b3037fc2ceee99fd9e0a8446c6578706572696d656e74616cf564736f6c63430005100040",
  "source": "pragma solidity ^0.5.3;\npragma experimental ABIEncoderV2;\nimport { PrntNFTDataObjects } from \"./PrntNFTDataObjects.sol\";\n\n\n// shared storage\ncontract PrntNFTDataStorages is PrntNFTDataObjects {\n\n    Prnt[] public prnts;\n\n}\n\n",
  "sourcePath": "C:/Users/NEWMONEY/Desktop/PrntPlace-main/contracts/prnt-nft-data/commons/PrntNFTDataStorages.sol",
  "compiler": {
    "name": "solc",
    "version": "0.5.16+commit.9c3226ce.Emscripten.clang"
  },
  "schemaVersion": "3.3.4",
  "updatedAt": "2021-03-19T23:32:40.670Z",
  "devdoc": {
    "methods": {}
  },
  "userdoc": {
    "methods": {}
  }
}