{
  "contractName": "PrntNFTData",
  "abi": [
    {
      "inputs": [],
      "payable": false,
      "stateMutability": "nonpayable",
      "type": "constructor"
    },
    {
      "constant": true,
      "inputs": [
        {
          "internalType": "uint256",
          "name": "",
          "type": "uint256"
        }
      ],
      "name": "prntAddresses",
      "outputs": [
        {
          "internalType": "address",
          "name": "",
          "type": "address"
        }
      ],
      "payable": false,
      "stateMutability": "view",
      "type": "function"
    },
    {
      "constant": true,
      "inputs": [
        {
          "internalType": "uint256",
          "name": "",
          "type": "uint256"
        }
      ],
      "name": "prnts",
      "outputs": [
        {
          "internalType": "contract PrntNFT",
          "name": "prntNFT",
          "type": "address"
        },
        {
          "internalType": "string",
          "name": "prntNFTName",
          "type": "string"
        },
        {
          "internalType": "string",
          "name": "prntNFTSymbol",
          "type": "string"
        },
        {
          "internalType": "address",
          "name": "ownerAddress",
          "type": "address"
        },
        {
          "internalType": "uint256",
          "name": "prntPrice",
          "type": "uint256"
        },
        {
          "internalType": "string",
          "name": "ipfsHashOfPrnt",
          "type": "string"
        },
        {
          "internalType": "string",
          "name": "status",
          "type": "string"
        },
        {
          "internalType": "uint256",
          "name": "reputation",
          "type": "uint256"
        }
      ],
      "payable": false,
      "stateMutability": "view",
      "type": "function"
    },
    {
      "constant": false,
      "inputs": [
        {
          "internalType": "address[]",
          "name": "_prntAddresses",
          "type": "address[]"
        },
        {
          "internalType": "contract PrntNFT",
          "name": "_prntNFT",
          "type": "address"
        },
        {
          "internalType": "string",
          "name": "_prntNFTName",
          "type": "string"
        },
        {
          "internalType": "string",
          "name": "_prntNFTSymbol",
          "type": "string"
        },
        {
          "internalType": "address",
          "name": "_ownerAddress",
          "type": "address"
        },
        {
          "internalType": "uint256",
          "name": "_prntPrice",
          "type": "uint256"
        },
        {
          "internalType": "string",
          "name": "_ipfsHashOfPrnt",
          "type": "string"
        }
      ],
      "name": "saveMetadataOfPrntNFT",
      "outputs": [
        {
          "internalType": "bool",
          "name": "",
          "type": "bool"
        }
      ],
      "payable": false,
      "stateMutability": "nonpayable",
      "type": "function"
    },
    {
      "constant": false,
      "inputs": [
        {
          "internalType": "contract PrntNFT",
          "name": "_prntNFT",
          "type": "address"
        },
        {
          "internalType": "address",
          "name": "_newOwner",
          "type": "address"
        }
      ],
      "name": "updateOwnerOfPrntNFT",
      "outputs": [
        {
          "internalType": "bool",
          "name": "",
          "type": "bool"
        }
      ],
      "payable": false,
      "stateMutability": "nonpayable",
      "type": "function"
    },
    {
      "constant": false,
      "inputs": [
        {
          "internalType": "contract PrntNFT",
          "name": "_prntNFT",
          "type": "address"
        },
        {
          "internalType": "string",
          "name": "_newStatus",
          "type": "string"
        }
      ],
      "name": "updateStatus",
      "outputs": [
        {
          "internalType": "bool",
          "name": "",
          "type": "bool"
        }
      ],
      "payable": false,
      "stateMutability": "nonpayable",
      "type": "function"
    },
    {
      "constant": true,
      "inputs": [
        {
          "internalType": "uint256",
          "name": "index",
          "type": "uint256"
        }
      ],
      "name": "getPrnt",
      "outputs": [
        {
          "components": [
            {
              "internalType": "contract PrntNFT",
              "name": "prntNFT",
              "type": "address"
            },
            {
              "internalType": "string",
              "name": "prntNFTName",
              "type": "string"
            },
            {
              "internalType": "string",
              "name": "prntNFTSymbol",
              "type": "string"
            },
            {
              "internalType": "address",
              "name": "ownerAddress",
              "type": "address"
            },
            {
              "internalType": "uint256",
              "name": "prntPrice",
              "type": "uint256"
            },
            {
              "internalType": "string",
              "name": "ipfsHashOfPrnt",
              "type": "string"
            },
            {
              "internalType": "string",
              "name": "status",
              "type": "string"
            },
            {
              "internalType": "uint256",
              "name": "reputation",
              "type": "uint256"
            }
          ],
          "internalType": "struct PrntNFTDataObjects.Prnt",
          "name": "_prnt",
          "type": "tuple"
        }
      ],
      "payable": false,
      "stateMutability": "view",
      "type": "function"
    },
    {
      "constant": true,
      "inputs": [
        {
          "internalType": "contract PrntNFT",
          "name": "prntNFT",
          "type": "address"
        }
      ],
      "name": "getPrntIndex",
      "outputs": [
        {
          "internalType": "uint256",
          "name": "_prntIndex",
          "type": "uint256"
        }
      ],
      "payable": false,
      "stateMutability": "view",
      "type": "function"
    },
    {
      "constant": true,
      "inputs": [
        {
          "internalType": "contract PrntNFT",
          "name": "prntNFT",
          "type": "address"
        }
      ],
      "name": "getPrntByNFTAddress",
      "outputs": [
        {
          "components": [
            {
              "internalType": "contract PrntNFT",
              "name": "prntNFT",
              "type": "address"
            },
            {
              "internalType": "string",
              "name": "prntNFTName",
              "type": "string"
            },
            {
              "internalType": "string",
              "name": "prntNFTSymbol",
              "type": "string"
            },
            {
              "internalType": "address",
              "name": "ownerAddress",
              "type": "address"
            },
            {
              "internalType": "uint256",
              "name": "prntPrice",
              "type": "uint256"
            },
            {
              "internalType": "string",
              "name": "ipfsHashOfPrnt",
              "type": "string"
            },
            {
              "internalType": "string",
              "name": "status",
              "type": "string"
            },
            {
              "internalType": "uint256",
              "name": "reputation",
              "type": "uint256"
            }
          ],
          "internalType": "struct PrntNFTDataObjects.Prnt",
          "name": "_prnt",
          "type": "tuple"
        }
      ],
      "payable": false,
      "stateMutability": "view",
      "type": "function"
    },
    {
      "constant": true,
      "inputs": [],
      "name": "getAllPrnts",
      "outputs": [
        {
          "components": [
            {
              "internalType": "contract PrntNFT",
              "name": "prntNFT",
              "type": "address"
            },
            {
              "internalType": "string",
              "name": "prntNFTName",
              "type": "string"
            },
            {
              "internalType": "string",
              "name": "prntNFTSymbol",
              "type": "string"
            },
            {
              "internalType": "address",
              "name": "ownerAddress",
              "type": "address"
            },
            {
              "internalType": "uint256",
              "name": "prntPrice",
              "type": "uint256"
            },
            {
              "internalType": "string",
              "name": "ipfsHashOfPrnt",
              "type": "string"
            },
            {
              "internalType": "string",
              "name": "status",
              "type": "string"
            },
            {
              "internalType": "uint256",
              "name": "reputation",
              "type": "uint256"
            }
          ],
          "internalType": "struct PrntNFTDataObjects.Prnt[]",
          "name": "_prnts",
          "type": "tuple[]"
        }
      ],
      "payable": false,
      "stateMutability": "view",
      "type": "function"
    }
  ],
  "bytecode": "0x608060405234801561001057600080fd5b5061184e806100206000396000f3fe608060405234801561001057600080fd5b50600436106100935760003560e01c8063955f4fd711610066578063955f4fd71461012857806398c279981461013d5780639bab7f4a14610150578063e4743ecd14610170578063f1b471141461018357610093565b8063184dba83146100985780631cefd298146100c157806327052ccd146100e157806370f5629b14610108575b600080fd5b6100ab6100a6366004611407565b610196565b6040516100b891906116d3565b60405180910390f35b6100d46100cf366004611407565b610466565b6040516100b89190611603565b6100f46100ef366004611407565b61048d565b6040516100b8989796959493929190611630565b61011b61011636600461135f565b61071f565b6040516100b891906116e4565b610130610775565b6040516100b89190611611565b6100ab61014b36600461135f565b610a61565b61016361015e3660046113bf565b610d81565b6040516100b89190611622565b61016361017e366004611385565b610dce565b610163610191366004611264565b610e5e565b61019e611004565b6101a6611004565b600083815481106101b357fe5b600091825260209182902060408051610100808201835260089490940290920180546001600160a01b03168352600180820180548451600293821615909702600019011691909104601f810187900487028601870190935282855292949093858201939092909183018282801561026b5780601f106102405761010080835404028352916020019161026b565b820191906000526020600020905b81548152906001019060200180831161024e57829003601f168201915b5050509183525050600282810180546040805160206001841615610100026000190190931694909404601f810183900483028501830190915280845293810193908301828280156102fd5780601f106102d2576101008083540402835291602001916102fd565b820191906000526020600020905b8154815290600101906020018083116102e057829003601f168201915b505050918352505060038201546001600160a01b03166020808301919091526004830154604080840191909152600584018054825160026101006001841615026000190190921691909104601f8101859004850282018501909352828152606090940193929091908301828280156103b65780601f1061038b576101008083540402835291602001916103b6565b820191906000526020600020905b81548152906001019060200180831161039957829003601f168201915b505050918352505060068201805460408051602060026001851615610100026000190190941693909304601f810184900484028201840190925281815293820193929183018282801561044a5780601f1061041f5761010080835404028352916020019161044a565b820191906000526020600020905b81548152906001019060200180831161042d57829003601f168201915b5050509183525050600791909101546020909101529392505050565b6001818154811061047357fe5b6000918252602090912001546001600160a01b0316905081565b6000818154811061049a57fe5b600091825260209182902060089091020180546001808301805460408051601f60026000199685161561010002969096019093169490940491820187900487028401870190528083526001600160a01b0390931695509293909291908301828280156105475780601f1061051c57610100808354040283529160200191610547565b820191906000526020600020905b81548152906001019060200180831161052a57829003601f168201915b50505060028085018054604080516020601f60001961010060018716150201909416959095049283018590048502810185019091528181529596959450909250908301828280156105d95780601f106105ae576101008083540402835291602001916105d9565b820191906000526020600020905b8154815290600101906020018083116105bc57829003601f168201915b505050506003830154600484015460058501805460408051602060026101006001861615026000190190941693909304601f810184900484028201840190925281815296976001600160a01b03909516969395509083018282801561067f5780601f106106545761010080835404028352916020019161067f565b820191906000526020600020905b81548152906001019060200180831161066257829003601f168201915b5050505060068301805460408051602060026001851615610100026000190190941693909304601f810184900484028201840190925281815294959493509083018282801561070f5780601f106106e45761010080835404028352916020019161070f565b820191906000526020600020905b8154815290600101906020018083116106f257829003601f168201915b5050505050908060070154905088565b60008181805b60015481101561076d57826001600160a01b03166001828154811061074657fe5b6000918252602090912001546001600160a01b03161415610765578091505b600101610725565b509392505050565b60606000805480602002602001604051908101604052809291908181526020016000905b82821015610a575760008481526020908190206040805161010080820183526008870290930180546001600160a01b03168252600180820180548551600293821615909702600019011691909104601f810187900487028601870190945283855291949093858201939092918301828280156108565780601f1061082b57610100808354040283529160200191610856565b820191906000526020600020905b81548152906001019060200180831161083957829003601f168201915b5050509183525050600282810180546040805160206001841615610100026000190190931694909404601f810183900483028501830190915280845293810193908301828280156108e85780601f106108bd576101008083540402835291602001916108e8565b820191906000526020600020905b8154815290600101906020018083116108cb57829003601f168201915b505050918352505060038201546001600160a01b03166020808301919091526004830154604080840191909152600584018054825160026101006001841615026000190190921691909104601f8101859004850282018501909352828152606090940193929091908301828280156109a15780601f10610976576101008083540402835291602001916109a1565b820191906000526020600020905b81548152906001019060200180831161098457829003601f168201915b505050918352505060068201805460408051602060026001851615610100026000190190941693909304601f8101849004840282018401909252818152938201939291830182828015610a355780601f10610a0a57610100808354040283529160200191610a35565b820191906000526020600020905b815481529060010190602001808311610a1857829003601f168201915b5050505050815260200160078201548152505081526020019060010190610799565b5050505090505b90565b610a69611004565b816000805b600154811015610ab657826001600160a01b031660018281548110610a8f57fe5b6000918252602090912001546001600160a01b03161415610aae578091505b600101610a6e565b50610abf611004565b60008281548110610acc57fe5b600091825260209182902060408051610100808201835260089490940290920180546001600160a01b03168352600180820180548451600293821615909702600019011691909104601f8101879004870286018701909352828552929490938582019390929091830182828015610b845780601f10610b5957610100808354040283529160200191610b84565b820191906000526020600020905b815481529060010190602001808311610b6757829003601f168201915b5050509183525050600282810180546040805160206001841615610100026000190190931694909404601f81018390048302850183019091528084529381019390830182828015610c165780601f10610beb57610100808354040283529160200191610c16565b820191906000526020600020905b815481529060010190602001808311610bf957829003601f168201915b505050918352505060038201546001600160a01b03166020808301919091526004830154604080840191909152600584018054825160026101006001841615026000190190921691909104601f810185900485028201850190935282815260609094019392909190830182828015610ccf5780601f10610ca457610100808354040283529160200191610ccf565b820191906000526020600020905b815481529060010190602001808311610cb257829003601f168201915b505050918352505060068201805460408051602060026001851615610100026000190190941693909304601f8101849004840282018401909252818152938201939291830182828015610d635780601f10610d3857610100808354040283529160200191610d63565b820191906000526020600020905b815481529060010190602001808311610d4657829003601f168201915b50505091835250506007919091015460209091015295945050505050565b600080610d8d8461071f565b90506000808281548110610d9d57fe5b9060005260206000209060080201905083816006019080519060200190610dc592919061105b565b50505092915050565b600080610dda8461071f565b90506000808281548110610dea57fe5b9060005260206000209060080201905060006001600160a01b0316846001600160a01b03161415610e365760405162461bcd60e51b8152600401610e2d906116c3565b60405180910390fd5b60030180546001600160a01b0319166001600160a01b03949094169390931790925592915050565b6000610e68611004565b5060408051610100810182526001600160a01b03898116825260208083018a81528385018a905288831660608501526080840188905260a084018790528451808601909552600485526327b832b760e11b8583015260c0840194909452600060e0840181905280546001810180835591805284517f290decd9548b62a8d60345a988386fc84ba6bc95484008f6362f93160ef3e563600890920291820180546001600160a01b031916919095161784559451805194959194869493610f51937f290decd9548b62a8d60345a988386fc84ba6bc95484008f6362f93160ef3e5640192019061105b565b5060408201518051610f6d91600284019160209091019061105b565b5060608201516003820180546001600160a01b0319166001600160a01b039092169190911790556080820151600482015560a08201518051610fb991600584019160209091019061105b565b5060c08201518051610fd591600684019160209091019061105b565b5060e09190910151600790910155508851610ff79060019060208c01906110d9565b5050979650505050505050565b60405180610100016040528060006001600160a01b03168152602001606081526020016060815260200160006001600160a01b03168152602001600081526020016060815260200160608152602001600081525090565b828054600181600116156101000203166002900490600052602060002090601f016020900481019282601f1061109c57805160ff19168380011785556110c9565b828001600101855582156110c9579182015b828111156110c95782518255916020019190600101906110ae565b506110d592915061113a565b5090565b82805482825590600052602060002090810192821561112e579160200282015b8281111561112e57825182546001600160a01b0319166001600160a01b039091161782556020909201916001909101906110f9565b506110d5929150611154565b610a5e91905b808211156110d55760008155600101611140565b610a5e91905b808211156110d55780546001600160a01b031916815560010161115a565b8035611183816117e2565b92915050565b600082601f83011261119a57600080fd5b81356111ad6111a882611719565b6116f2565b915081818352602084019350602081019050838560208402820111156111d257600080fd5b60005b838110156111fe57816111e88882611178565b84525060209283019291909101906001016111d5565b5050505092915050565b8035611183816117f9565b600082601f83011261122457600080fd5b81356112326111a88261173a565b9150808252602083016020830185838301111561124e57600080fd5b610dc583828461179c565b803561118381611802565b600080600080600080600060e0888a03121561127f57600080fd5b873567ffffffffffffffff81111561129657600080fd5b6112a28a828b01611189565b97505060206112b38a828b01611208565b965050604088013567ffffffffffffffff8111156112d057600080fd5b6112dc8a828b01611213565b955050606088013567ffffffffffffffff8111156112f957600080fd5b6113058a828b01611213565b94505060806113168a828b01611178565b93505060a06113278a828b01611259565b92505060c088013567ffffffffffffffff81111561134457600080fd5b6113508a828b01611213565b91505092959891949750929550565b60006020828403121561137157600080fd5b600061137d8484611208565b949350505050565b6000806040838503121561139857600080fd5b60006113a48585611208565b92505060206113b585828601611178565b9150509250929050565b600080604083850312156113d257600080fd5b60006113de8585611208565b925050602083013567ffffffffffffffff8111156113fb57600080fd5b6113b585828601611213565b60006020828403121561141957600080fd5b600061137d8484611259565b60006114318383611548565b9392505050565b61144181611775565b82525050565b600061145282611768565b61145c818561176c565b93508360208202850161146e85611762565b8060005b858110156114a8578484038952815161148b8582611425565b945061149683611762565b60209a909a0199925050600101611472565b5091979650505050505050565b61144181611780565b61144181611785565b60006114d282611768565b6114dc818561176c565b93506114ec8185602086016117a8565b6114f5816117d8565b9093019392505050565b600061150c60278361176c565b7f41206e6577206f776e657220616464726573732073686f756c64206265206e6f8152667420656d70747960c81b602082015260400192915050565b805160009061010084019061155d85826114be565b506020830151848203602086015261157582826114c7565b9150506040830151848203604086015261158f82826114c7565b91505060608301516115a46060860182611438565b5060808301516115b760808601826115fa565b5060a083015184820360a08601526115cf82826114c7565b91505060c083015184820360c08601526115e982826114c7565b91505060e083015161076d60e08601825b61144181610a5e565b602081016111838284611438565b602080825281016114318184611447565b6020810161118382846114b5565b610100810161163f828b6114be565b8181036020830152611651818a6114c7565b9050818103604083015261166581896114c7565b90506116746060830188611438565b61168160808301876115fa565b81810360a083015261169381866114c7565b905081810360c08301526116a781856114c7565b90506116b660e08301846115fa565b9998505050505050505050565b60208082528101611183816114ff565b602080825281016114318184611548565b6020810161118382846115fa565b60405181810167ffffffffffffffff8111828210171561171157600080fd5b604052919050565b600067ffffffffffffffff82111561173057600080fd5b5060209081020190565b600067ffffffffffffffff82111561175157600080fd5b506020601f91909101601f19160190565b60200190565b5190565b90815260200190565b600061118382611790565b151590565b600061118382611775565b6001600160a01b031690565b82818337506000910152565b60005b838110156117c35781810151838201526020016117ab565b838111156117d2576000848401525b50505050565b601f01601f191690565b6117eb81611775565b81146117f657600080fd5b50565b6117eb81611785565b6117eb81610a5e56fea365627a7a72315820ae1631e5e8e9c4ff88028b162852759ff1c3691324298abbe2d75f739e4c4d4c6c6578706572696d656e74616cf564736f6c63430005100040",
  "source": "pragma solidity ^0.5.3;\r\npragma experimental ABIEncoderV2;\r\nimport { PrntNFTDataStorages } from \"./prnt-nft-data/commons/PrntNFTDataStorages.sol\";\r\nimport { PrntNFT } from \"./PrntNFT.sol\";\r\n\r\n\r\n/**\r\n * @notice - This is the storage contract for prntNFTs\r\n */\r\ncontract PrntNFTData is PrntNFTDataStorages {\r\n\r\n    address[] public prntAddresses;\r\n\r\n    constructor() public {}\r\n\r\n    /**\r\n     * @notice - Save metadata of a prntNFT\r\n     */\r\n    function saveMetadataOfPrntNFT(\r\n        address[] memory _prntAddresses, \r\n        PrntNFT _prntNFT, \r\n        string memory _prntNFTName, \r\n        string memory _prntNFTSymbol, \r\n        address _ownerAddress, \r\n        uint _prntPrice, \r\n        string memory _ipfsHashOfPrnt\r\n    ) public returns (bool) {\r\n        /// Save metadata of a prntNFT of prnt\r\n        Prnt memory prnt = Prnt({\r\n            prntNFT: _prntNFT,\r\n            prntNFTName: _prntNFTName,\r\n            prntNFTSymbol: _prntNFTSymbol,\r\n            ownerAddress: _ownerAddress,\r\n            prntPrice: _prntPrice,\r\n            ipfsHashOfPrnt: _ipfsHashOfPrnt,\r\n            status: \"Open\",\r\n            reputation: 0\r\n        });\r\n        prnts.push(prnt);\r\n\r\n        /// Update prntAddresses\r\n        prntAddresses = _prntAddresses;     \r\n    }\r\n\r\n    /**\r\n     * @notice - Update owner address of a prntNFT by transferring ownership\r\n     */\r\n    function updateOwnerOfPrntNFT(PrntNFT _prntNFT, address _newOwner) public returns (bool) {\r\n        /// Identify prnt's index\r\n        uint prntIndex = getPrntIndex(_prntNFT);\r\n\r\n        /// Update metadata of a prntNFT of prnt\r\n        Prnt storage prnt = prnts[prntIndex];\r\n        require (_newOwner != address(0), \"A new owner address should be not empty\");\r\n        prnt.ownerAddress = _newOwner;  \r\n    }\r\n\r\n    /**\r\n     * @notice - Update status (\"Open\" or \"Cancelled\")\r\n     */\r\n    function updateStatus(PrntNFT _prntNFT, string memory _newStatus) public returns (bool) {\r\n        /// Identify prnt's index\r\n        uint prntIndex = getPrntIndex(_prntNFT);\r\n\r\n        /// Update metadata of a prntNFT of prnt\r\n        Prnt storage prnt = prnts[prntIndex];\r\n        prnt.status = _newStatus;  \r\n    }\r\n\r\n\r\n    ///-----------------\r\n    /// Getter methods\r\n    ///-----------------\r\n    function getPrnt(uint index) public view returns (Prnt memory _prnt) {\r\n        Prnt memory prnt = prnts[index];\r\n        return prnt;\r\n    }\r\n\r\n    function getPrntIndex(PrntNFT prntNFT) public view returns (uint _prntIndex) {\r\n        address PRNT_NFT = address(prntNFT);\r\n\r\n        /// Identify member's index\r\n        uint prntIndex;\r\n        for (uint i=0; i < prntAddresses.length; i++) {\r\n            if (prntAddresses[i] == PRNT_NFT) {\r\n                prntIndex = i;\r\n            }\r\n        }\r\n\r\n        return prntIndex;   \r\n    }\r\n\r\n    function getPrntByNFTAddress(PrntNFT prntNFT) public view returns (Prnt memory _prnt) {\r\n        address PRNT_NFT = address(prntNFT);\r\n\r\n        /// Identify member's index\r\n        uint prntIndex;\r\n        for (uint i=0; i < prntAddresses.length; i++) {\r\n            if (prntAddresses[i] == PRNT_NFT) {\r\n                prntIndex = i;\r\n            }\r\n        }\r\n\r\n        Prnt memory prnt = prnts[prntIndex];\r\n        return prnt;\r\n    }\r\n\r\n    function getAllPrnts() public view returns (Prnt[] memory _prnts) {\r\n        return prnts;\r\n    }\r\n\r\n}\r\n",
  "sourcePath": "E:\\Blockchain\\PrntPlace-main\\contracts\\PrntNFTData.sol",
  "compiler": {
    "name": "solc",
    "version": "0.5.16+commit.9c3226ce.Emscripten.clang"
  },
  "schemaVersion": "3.3.4",
  "updatedAt": "2021-04-01T15:19:39.646Z",
  "networkType": "ethereum",
  "devdoc": {
    "methods": {}
  },
  "userdoc": {
    "methods": {
      "getPrnt(uint256)": {
        "notice": "----------------- Getter methods -----------------"
      },
      "saveMetadataOfPrntNFT(address[],address,string,string,address,uint256,string)": {
        "notice": "- Save metadata of a prntNFT"
      },
      "updateOwnerOfPrntNFT(address,address)": {
        "notice": "- Update owner address of a prntNFT by transferring ownership"
      },
      "updateStatus(address,string)": {
        "notice": "- Update status (\"Open\" or \"Cancelled\")"
      }
    },
    "notice": "- This is the storage contract for prntNFTs"
  }
}